:100000000C942A000C9447000C9447000C94920323
:100010000C94AC0D0C94DF0D0C94E00C0C94130DAF
:100020000C94460D0C94790D0C947A0C0C94AD0C38
:100030000C94BA020C945D040C9490040C94C304C8
:100040000C9447000C9447000C9447000C94470014
:100050000C94470011241FBECFE5D8E0DEBFCDBF12
:1000600010E0A0E6B0E0E8EBF7E202C005900D92E8
:10007000A436B107D9F710E0A4E6B0E001C01D92A4
:10008000A238B107E1F70E9449000C94DA130C94EE
:100090000000DF93CF93CDB7DEB728970FB6F89463
:1000A000DEBF0FBECDBFCE0101969D838C83E1E6FE
:1000B000F0E0FF83EE83F3E0F887EE81FF810080BC
:1000C0008E819F8101969F838E83EC81FD810082CA
:1000D0008C819D8101969D838C8398859150988712
:1000E000E885EE2351F780E061E040E00E941308CC
:1000F000CE0101960E94ED026AE070E080E090E09F
:100100000E94210CE9E3F0E08081882F90E081706B
:100110009070882321F081E00E946603EDCF80E09B
:100120000E946603E9CFDF93CF93CDB7DEB7CF91BF
:10013000DF910895DF93CF93CDB7DEB781E0809351
:100140006400CF91DF910895DF93CF93CDB7DEB7F1
:10015000CF91DF910895DF93CF9300D000D00F921D
:10016000CDB7DEB71D8219821A821B821C8280E005
:100170000E94490B81E00E94490B52C080E00E941E
:10018000940B8D819AE0692F0E9498139AE0692F51
:100190000E949813892F982F80E0692F0E94EC0B02
:1001A00061E070E080E090E00E94210C80E00E941D
:1001B000C10B81E00E94940B8D819AE0692F0E940F
:1001C0009813892F982F81E0692F0E94EC0B61E032
:1001D00070E080E090E00E94210C81E00E94C10B61
:1001E00089819A81AB81BC810196A11DB11D898352
:1001F0009A83AB83BC8389819A81AB81BC8125EDD5
:1002000031E040E050E0BC01CD010E94B813DC01B8
:10021000CB010097A105B10519F48D818F5F8D8306
:100220008D81843608F4AACFFBCFDF93CF9300D023
:10023000CDB7DEB71A8284E1898381E00E94AB09E1
:1002400081E00E94B30A84E1898381E00E94E10A8F
:100250008230C9F781E00E94E10A8823D9F78A81B8
:100260008F5F8A8324C081E00E94EE0917C061E39A
:1002700070E080E090E00E94210C81E00E94E10AA1
:10028000823049F46CE271E080E090E00E94210C41
:100290008981825F898389818150898389818823CB
:1002A00031F781E00E94310A8A8181508A838A81F4
:1002B0008823C9F60F900F90CF91DF910895DF93B7
:1002C000CF9300D00F92CDB7DEB7198281E00E94A4
:1002D000AB0982E00E94AB0983E00E94AB098981EF
:1002E000282F30E03B832A838A819B8181309105CE
:1002F000A9F02A813B8122303105E1F08A819B817E
:10030000009711F581E00E94EE0982E00E94310A17
:1003100083E00E94310A81E0898316C081E00E9457
:10032000310A82E00E94EE0983E00E94310A82E0F5
:1003300089830AC081E00E94310A82E00E94310A6A
:1003400083E00E94EE09198268EE73E080E090E09D
:100350000E94210CC4CFDF93CF93CDB7DEB783E0EB
:1003600060E34FEF0E941308AFE4B0E0EFE4F0E089
:1003700080818B7F8C93AFE4B0E0EFE4F0E080818C
:10038000877F8C93AFE4B0E0EFE4F0E080818E7F74
:100390008C93AFE4B0E0EFE4F0E0808182608C9376
:1003A000AEE4B0E0EEE4F0E0808188608C93AEE4EF
:1003B000B0E0EEE4F0E0808180618C93AFE4B0E0E7
:1003C000EFE4F0E080818F7B8C93AFE4B0E0EFE46A
:1003D000F0E0808180688C93AFE4B0E0EFE4F0E07F
:1003E00080818F7E8C93AFE4B0E0EFE4F0E0808119
:1003F00080628C93AEE4B0E0EEE4F0E080818F7B2D
:100400008C93AEE4B0E0EEE4F0E080818F778C93E3
:10041000ECE4F0E011821082CF91DF910895EF9229
:10042000FF920F931F93DF93CF9300D000D00F92D2
:10043000CDB7DEB789834A835B836C837D838A81F2
:100440009B81AC81BD81853F9105A105B105D8F0A7
:1004500006E410E080E094E2A4EFB0E02A813B8162
:100460004C815D81BC01CD010E94B813DA01C90144
:10047000F80191838083AEE4B0E0EEE4F0E08081A7
:1004800081608C9331C08A819B81AC81BD818F3129
:100490009105A105B10540F106E410E08A819B8138
:1004A000AC81BD81880F991FAA1FBB1F880F991FA0
:1004B000AA1FBB1F880F991FAA1FBB1F9C01AD015C
:1004C00080E094E2A4EFB0E0BC01CD010E94B8133B
:1004D000DA01C901F80191838083AEE4B0E0EEE473
:1004E000F0E0808182608C930F2EFAE4EF2EFF24DF
:1004F000F02D8981082F10E0E6E4F0E08081918101
:1005000024E630E0B9010E94A413CB019C01029FB4
:10051000C001039F900D129F900D1124F70191834C
:1005200080830F2EF8E4EF2EFF24F02D8981082F11
:1005300010E0E6E4F0E08081918124E630E0B9014A
:100540000E94A413CB019C01029FC001039F900D48
:10055000129F900D1124F701918380830F900F90CB
:100560000F900F900F90CF91DF911F910F91FF90FF
:10057000EF9008951F920F920FB60F9211242F93B0
:100580003F934F935F936F937F938F939F93AF931B
:10059000BF93EF93FF93DF93CF93CDB7DEB78091F7
:1005A000650090916600009729F0E0916500F09158
:1005B00066000995CF91DF91FF91EF91BF91AF91C7
:1005C0009F918F917F916F915F914F913F912F916B
:1005D0000F900FBE0F901F901895DF93CF9300D010
:1005E000CDB7DEB79A838983E981FA818081882338
:1005F00091F481E060EB40E00E94130881E060E448
:100600004FEF0E941308ADE2B0E0EDE2F0E0808130
:100610008F7E8C9316C0E981FA818081813089F4C4
:1006200081E060EB4FEF0E94130881E060E440E05E
:100630000E941308ADE2B0E0EDE2F0E0808180615D
:100640008C93ADE2B0E0EDE2F0E08081982F9F77EF
:10065000E981FA818181892B8C93ADE2B0E0EDE2F2
:10066000F0E0808180648C93ADE2B0E0EDE2F0E0F8
:100670008081982F9C7FE981FA8182818370892B08
:100680008C93AEE2B0E0EEE2F0E08081982F9E7FA6
:10069000E981FA81828186958695892B8C930F90CA
:1006A0000F90CF91DF910895DF93CF9300D0CDB716
:1006B000DEB79A83898389819A81909366008093BB
:1006C00065000F900F90CF91DF910895DF93CF9346
:1006D0000F92CDB7DEB78983EFE2F0E089818083A6
:1006E000EDE2F0E0808188232CF0EEE2F0E0808102
:1006F0008823DCF70F90CF91DF910895DF93CF939C
:10070000CDB7DEB7EDE2F0E0808188232CF0EEE299
:10071000F0E080818823DCF7EFE2F0E08081CF9188
:10072000DF9108951F920F920FB60F9211242F930D
:100730003F934F935F936F937F938F939F93AF9369
:10074000BF93EF93FF93DF93CF93CDB7DEB7E4E58D
:10075000F0E08081882F90E080749070009731F0F5
:100760000E94460480E00E94180415C0E4E5F0E011
:100770008081882F90E080749070009761F487E604
:1007800090E00E942C0480E40E9418040E943D0422
:1007900081E080936800CF91DF91FF91EF91BF914D
:1007A000AF919F918F917F916F915F914F913F9109
:1007B0002F910F900FBE0F901F901895EF920F93EF
:1007C000DF93CF930F92CDB7DEB7898380E060E0EF
:1007D00044E020E000E0EE240E94120E81E064E09C
:1007E00040E00E94130883E061E04FEF0E9413088D
:1007F000ABE5B0E0EBE5F0E0808180628C93A4E5AE
:10080000B0E0E4E5F0E08081982F9F7B8981892B1F
:100810008C9378940F90CF91DF910F91EF90089582
:10082000DF93CF93CDB7DEB780E0CF91DF9108950E
:10083000DF93CF930F92CDB7DEB78983A4E5B0E005
:10084000E4E5F0E08081982F9F7B8981892B8C9350
:100850000F90CF91DF910895DF93CF9300D0CDB764
:10086000DEB79A8389830E946A0EE981FA818083C8
:100870000F900F90CF91DF910895DF93CF93CDB775
:10088000DEB70E94890ECF91DF910895DF93CF9359
:10089000CDB7DEB70E94740ECF91DF910895DF933C
:1008A000CF93CDB7DEB7CF91DF910895DF93CF938C
:1008B000CDB7DEB7CF91DF9108951F920F920FB69B
:1008C0000F9211242F933F934F935F936F937F93D6
:1008D0008F939F93AF93BF93EF93FF93DF93CF9348
:1008E000CDB7DEB780916B0090916C00009729F036
:1008F000E0916B00F0916C000995CF91DF91FF9131
:10090000EF91BF91AF919F918F917F916F915F9187
:100910004F913F912F910F900FBE0F901F90189500
:100920001F920F920FB60F9211242F933F934F9364
:100930005F936F937F938F939F93AF93BF93EF9347
:10094000FF93DF93CF93CDB7DEB780916D00909189
:100950006E00009729F0E0916D00F0916E0009950E
:10096000CF91DF91FF91EF91BF91AF919F918F91C7
:100970007F916F915F914F913F912F910F900FBE9B
:100980000F901F9018951F920F920FB60F9211247F
:100990002F933F934F935F936F937F938F939F9387
:1009A000AF93BF93EF93FF93DF93CF93CDB7DEB7B2
:1009B0008091690090916A00009729F0E0916900A8
:1009C000F0916A000995CF91DF91FF91EF91BF916E
:1009D000AF919F918F917F916F915F914F913F91D7
:1009E0002F910F900FBE0F901F901895DF93CF930C
:1009F00000D0CDB7DEB79A83898389819A8190939D
:100A00006A00809369000F900F90CF91DF91089555
:100A1000DF93CF9300D0CDB7DEB79A8389838981E6
:100A20009A8190936C0080936B000F900F90CF9100
:100A3000DF910895DF93CF9300D0CDB7DEB79A83CF
:100A4000898389819A8190936E0080936D000F90C5
:100A50000F90CF91DF910895DF93CF9300D000D016
:100A6000CDB7DEB79A838983ABE2B0E0EBE2F0E08A
:100A7000808182608C93E981FA818181282F30E026
:100A80003C832B838B819C8181309105F1F02B81FC
:100A90003C812230310569F18B819C81009709F0FE
:100AA00049C0AAE2B0E0EAE2F0E0808188608C937D
:100AB000E981FA8185818130E9F5AAE2B0E0EAE2D4
:100AC000F0E0808180648C9335C0AAE2B0E0EAE275
:100AD000F0E0808180618C93E981FA8185818130A9
:100AE00049F5AAE2B0E0EAE2F0E0808180688C9308
:100AF00021C0AAE2B0E0EAE2F0E0808188608C9355
:100B0000AAE2B0E0EAE2F0E0808180618C93E981C2
:100B1000FA818581813071F4AAE2B0E0EAE2F0E086
:100B2000808180648C93AAE2B0E0EAE2F0E0808108
:100B300080688C93AAE2B0E0EAE2F0E08081982F2E
:100B40009B7FE981FA8182818470892B8C93A0E458
:100B5000B0E0E0E4F0E0808180688C93A0E4B0E055
:100B6000E0E4F0E09081E981FA818081892B8C9327
:100B7000A0E4B0E0E0E4F0E08081282F297FE98163
:100B8000FA818281882F90E083709070880F991F7E
:100B9000822B8C93A0E4B0E0E0E4F0E08081982F19
:100BA0009F7CE981FA818381892B8C93A0E4B0E05A
:100BB000E0E4F0E08081982F977FE981FA818481D9
:100BC000892B8C93E0E4F0E01082E9E2F0E08FEC16
:100BD00080830F900F900F900F90CF91DF91089529
:100BE000DF93CF930F92CDB7DEB78983EAE2F0E0CF
:100BF0008081882F90E080749070009749F4EBE238
:100C0000F0E08081882F90E0807290700097B9F3B7
:100C1000ECE2F0E0898180830F90CF91DF9108951D
:100C2000DF93CF93CDB7DEB7EAE2F0E0808188238F
:100C30002CF0EBE2F0E080818823DCF7ECE2F0E0DE
:100C40008081CF91DF910895DF93CF9300D00F92F1
:100C5000CDB7DEB789838981282F30E03B832A8393
:100C60008A819B81009731F02A813B8121303105B7
:100C7000B1F029C083E060E14FEF0E94130883E0E8
:100C800064E04FEF0E94130883E068E04FEF0E949A
:100C9000130883E060E14FEF0E947F0814C083E0F7
:100CA00060E24FEF0E94130883E060E44FEF0E9480
:100CB000130883E060E84FEF0E94130883E060E2CE
:100CC0004FEF0E947F080F900F900F90CF91DF9110
:100CD0000895DF93CF93CDB7DEB72B970FB6F89477
:100CE000DEBF0FBECDBF8C836D831B821A8219823B
:100CF0008C81282F30E03B872A878A859B85009747
:100D000031F02A853B852130310541F00DC083E06B
:100D10008B8384E08A8388E0898306C083E08B83A9
:100D200080E48A8380E889838D81282F30E03987A9
:100D30002887888599858130910571F128853985C5
:100D400022303105A1F1888599850097D1F58B81F5
:100D50006A8140E00E947F088B81698140E00E94A7
:100D60007F088C81282F30E03F832E838E819F81E6
:100D7000009731F02E813F812130310539F021C0BB
:100D80008B8160E140E00E947F081BC08B8160E2A4
:100D900040E00E947F0815C08B816A8140E00E947C
:100DA0007F088B8169814FEF0E947F080AC08B8189
:100DB0006A814FEF0E947F088B81698140E00E9429
:100DC0007F082B960FB6F894DEBF0FBECDBFCF9134
:100DD000DF910895DF93CF930F92CDB7DEB789836C
:100DE000898168EC0E942D0F0F90CF91DF910895BB
:100DF000DF93CF930F92CDB7DEB789830F90CF915A
:100E0000DF910895DF93CF9300D000D0CDB7DEB748
:100E100089836A838981282F30E03C832B838B81EF
:100E20009C8181309105D1F02B813C8122303105AC
:100E30002CF48B819C81009761F01EC02B813C813A
:100E40002230310581F08B819C818330910581F0C6
:100E500013C0EAE3F0E08A8180830EC0E7E3F0E0AC
:100E60008A81808309C0E4E3F0E08A81808304C042
:100E7000E1E3F0E08A8180830F900F900F900F9054
:100E8000CF91DF910895DF93CF9300D000D0CDB7FD
:100E9000DEB789836A838981282F30E03C832B83E6
:100EA0008B819C8181309105D1F02B813C81223056
:100EB00031052CF48B819C81009761F01EC02B8141
:100EC0003C812230310581F08B819C8183309105FA
:100ED00081F013C0EBE3F0E08A8180830EC0E8E389
:100EE000F0E08A81808309C0E5E3F0E08A818083B5
:100EF00004C0E2E3F0E08A8180830F900F900F90AE
:100F00000F90CF91DF910895DF93CF9300D00F9290
:100F1000CDB7DEB789838981282F30E03B832A83D0
:100F20008A819B8181309105E9F02A813B812230C1
:100F300031052CF48A819B81009761F02AC02A81B7
:100F40003B8122303105B1F08A819B81833091054C
:100F5000C9F01FC0ABE3B0E0EBE3F0E08081809527
:100F60008C9317C0A8E3B0E0E8E3F0E080818095BF
:100F70008C930FC0A5E3B0E0E5E3F0E080818095BD
:100F80008C9307C0A2E3B0E0E2E3F0E080818095BB
:100F90008C930F900F900F90CF91DF910895DF9376
:100FA000CF9300D000D0CDB7DEB789838981282FB9
:100FB00030E03C832B838B819C8181309105D1F083
:100FC0002B813C81223031052CF48B819C81009750
:100FD00061F01FC02B813C812230310581F08B8173
:100FE0009C818330910581F014C0E9E3F0E09081A9
:100FF0009A8311C0E6E3F0E020812A830CC0E3E38A
:10100000F0E030813A8307C0E0E3F0E080818A833A
:1010100002C09FEF9A838A810F900F900F900F90DC
:10102000CF91DF910895DF93CF93CDB7DEB72997A6
:101030000FB6F894DEBF0FBECDBF8B836C834D839C
:101040001A8219828B81282F30E03987288788857A
:10105000998581309105D1F0288539852230310577
:101060002CF488859985009761F01EC02885398504
:101070002230310581F0888599858330910581F092
:1010800013C08AE390E09A8389830EC087E390E0DF
:101090009A83898309C084E390E09A83898304C09A
:1010A00081E390E09A8389838D81282F30E03F830C
:1010B0002E838E819F81009731F02E813F812F3FBB
:1010C000310561F013C0E981FA818081982F8C810C
:1010D00080958923E981FA81808308C0E981FA81BA
:1010E00090818C81892BE981FA81808329960FB6C2
:1010F000F894DEBF0FBECDBFCF91DF910895DF938F
:10110000CF93CDB7DEB729970FB6F894DEBF0FBEE9
:10111000CDBF8B836C834D831A8219828B81282FDC
:1011200030E0398728878885998581309105D1F00D
:1011300028853985223031052CF4888599850097DA
:1011400061F01EC0288539852230310581F08885FF
:1011500099858330910581F013C08BE390E09A83E9
:1011600089830EC088E390E09A83898309C085E370
:1011700090E09A83898304C082E390E09A83898314
:101180008D81282F30E03F832E838E819F810097B1
:1011900031F02E813F812F3F310561F013C0E9818D
:1011A000FA818081982F8C8180958923E981FA8149
:1011B000808308C0E981FA8190818C81892BE98143
:1011C000FA81808329960FB6F894DEBF0FBECDBF9B
:1011D000CF91DF910895DF93CF9300D000D0CDB7AA
:1011E000DEB789836A838981282F30E03C832B8393
:1011F0008B819C8181309105F1F02B813C812230E3
:1012000031052CF48B819C81009761F02EC02B81DD
:101210003C8122303105C1F08B819C818330910566
:10122000E1F023C0ABE3B0E0EBE3F0E090818A8132
:1012300089278C931AC0A8E3B0E0E8E3F0E090813E
:101240008A8189278C9311C0A5E3B0E0E5E3F0E043
:1012500090818A8189278C9308C0A2E3B0E0E2E301
:10126000F0E090818A8189278C930F900F900F90E6
:101270000F90CF91DF910895DF93CF93CDB7DEB775
:1012800029970FB6F894DEBF0FBECDBF89836A835E
:101290008981282F30E03D832C838C819D81813092
:1012A000910519F12C813D81223031052CF48C817E
:1012B0009D81009761F043C02C813D812230310532
:1012C00011F18C819D818330910559F138C0E9E39A
:1012D000F0E090818A8189238E839E81992311F089
:1012E00021E02E833E813B832CC0E6E3F0E0908139
:1012F0008A8189238F838F81882311F091E09F83D6
:101300002F812B831EC0E3E3F0E090818A81892343
:1013100088873885332311F081E0888798859B83FF
:1013200010C0E0E3F0E090818A81892389872985D4
:10133000222311F031E0398789858B8302C09FEF2A
:101340009B838B8129960FB6F894DEBF0FBECDBF6D
:10135000CF91DF910895DF93CF9300D00F92CDB757
:10136000DEB789838981282F30E03B832A838A81F5
:101370009B8181309105D9F02A813B812230310552
:101380002CF48A819B81009761F022C02A813B81E5
:101390002230310591F08A819B818330910599F04B
:1013A00017C081E060E14FEF0E94130811C081E097
:1013B00060E24FEF0E9413080BC081E060E44FEF42
:1013C0000E94130805C081E060E84FEF0E941308F7
:1013D0000F900F900F90CF91DF910895DF93CF93EF
:1013E00000D00F92CDB7DEB789838981282F30E0F6
:1013F0003B832A838A819B8181309105D9F02A81A0
:101400003B81223031052CF48A819B81009761F069
:1014100022C02A813B812230310591F08A819B8153
:101420008330910599F017C081E060E14FEF0E9491
:101430007F0811C081E060E24FEF0E947F080BC07F
:1014400081E060E44FEF0E947F0805C081E060E822
:101450004FEF0E947F080F900F900F90CF91DF9178
:101460000895DF93CF9300D00F92CDB7DEB7898375
:101470008981282F30E03B832A838A819B818130B8
:101480009105D9F02A813B81223031052CF48A81E3
:101490009B81009761F022C02A813B812230310577
:1014A00091F08A819B818330910599F017C081E08A
:1014B00060E140E00E947F0811C081E060E240E00E
:1014C0000E947F080BC081E060E440E00E947F083A
:1014D00005C081E060E840E00E947F080F900F9017
:1014E0000F90CF91DF910895DF93CF9300D00F92AB
:1014F000CDB7DEB789838981282F30E03B832A83EB
:101500008A819B8181309105D1F02A813B812230F3
:1015100031052CF48A819B81009761F01EC02A81DD
:101520003B812230310581F08A819B818330910596
:1015300081F013C081E060E10E94EB080EC081E001
:1015400060E20E94EB0809C081E060E40E94EB08C1
:1015500004C081E060E80E94EB080F900F900F90AC
:10156000CF91DF910895DF93CF9300D00F92CDB745
:10157000DEB789838981282F30E03B832A838A81E3
:101580009B81009731F02A813B812130310539F070
:101590000BC082E060E140E00E94130805C081E0DA
:1015A00064E040E00E9413080F900F900F90CF91DD
:1015B000DF910895DF93CF93CDB7DEB7CF91DF9161
:1015C0000895DF93CF9300D000D0CDB7DEB78983E5
:1015D0008981282F30E03C832B838B819C81813053
:1015E000910571F12B813C81223031052CF48B81E6
:1015F0009C81009761F043C02B813C8122303105F2
:10160000C1F18B819C8183309105B1F138C082E0BA
:1016100060E10E943C09882389F064E170E080E089
:1016200090E00E94210C82E060E10E943C09882346
:1016300019F092E09A8325C01A8223C01A8221C031
:1016400081E064E00E943C09882389F064E170E055
:1016500080E090E00E94210C81E064E00E943C095F
:10166000882319F022E02A830CC01A820AC01A8249
:1016700008C03FEF3A8305C08FEF8A8302C09FEF17
:101680009A838A810F900F900F900F90CF91DF91E6
:101690000895DF93CF9300D00F92CDB7DEB7898343
:1016A0008981282F30E03B832A838A819B810097A0
:1016B00031F02A813B8121303105C9F02FC081E012
:1016C0006FE04FEF0E94130883E064E14FEF0E9448
:1016D000130881E06FE040E00E947F0883E060E152
:1016E00040E00E947F0880E00E94C10B17C081E0AB
:1016F0006FE04FEF0E94130883E068E14FEF0E9414
:10170000130881E06FE040E00E947F0883E060E121
:1017100040E00E947F0881E00E94C10B0F900F9073
:101720000F90CF91DF910895DF93CF9300D00F9268
:10173000CDB7DEB789838981282F30E03B832A83A8
:101740008A819B81009731F02A813B8121303105CC
:1017500051F011C083E064E040E00E947F088FEF09
:1017600080936F0008C083E068E040E00E947F083B
:101770008FEF809360000F900F900F90CF91DF91CB
:101780000895DF93CF9300D00F92CDB7DEB7898352
:101790008981282F30E03B832A838A819B810097AF
:1017A00031F02A813B812130310549F00FC083E0BF
:1017B00064E04FEF0E947F0810926F0007C083E043
:1017C00068E04FEF0E947F08109260000F900F902A
:1017D0000F90CF91DF910895DF93CF9300D000D089
:1017E000CDB7DEB789836A838981282F30E03C83B7
:1017F0002B838B819C81009731F02B813C812130A0
:10180000310569F017C080916F008F3F99F48A818C
:10181000982F9F7081E0692F0E9443070BC0809131
:1018200060008F3F39F48A81982F9F7081E0692F83
:101830000E9443070F900F900F900F90CF91DF9170
:101840000895DF93CF93CDB7DEB760970FB6F894C6
:10185000DEBF0FBECDBF6D877E878F87988B84E8F4
:1018600091E0A0E0B0E089879A87AB87BC871D82B2
:101870001E821F82188628C019821A821B821C822F
:101880000BC089819A81AB81BC810196A11DB11DDC
:1018900089839A83AB83BC8329813A814B815C81A4
:1018A00089859A85AB85BC85281739074A075B0768
:1018B00040F38D819E81AF81B8850196A11DB11D38
:1018C0008D839E83AF83B8872D813E814F8158855C
:1018D0008D859E85AF85B889281739074A075B072C
:1018E00058F260960FB6F894DEBF0FBECDBFCF9111
:1018F000DF9108951F920F920FB60F9211242F932C
:101900003F934F935F936F937F938F939F93AF9387
:10191000BF93EF93FF93DF93CF93CDB7DEB7809163
:10192000720090917300009729F0E0917200F0919D
:1019300073000995CF91DF91FF91EF91BF91AF9126
:101940009F918F917F916F915F914F913F912F91D7
:101950000F900FBE0F901F9018951F920F920FB609
:101960000F9211242F933F934F935F936F937F9325
:101970008F939F93AF93BF93EF93FF93DF93CF9397
:10198000CDB7DEB78091740090917500009729F073
:10199000E0917400F09175000995CF91DF91FF916E
:1019A000EF91BF91AF919F918F917F916F915F91D7
:1019B0004F913F912F910F900FBE0F901F90189550
:1019C0001F920F920FB60F9211242F933F934F93B4
:1019D0005F936F937F938F939F93AF93BF93EF9397
:1019E000FF93DF93CF93CDB7DEB7809176009091D0
:1019F0007700009729F0E0917600F0917700099543
:101A0000CF91DF91FF91EF91BF91AF919F918F9116
:101A10007F916F915F914F913F912F910F900FBEEA
:101A20000F901F9018951F920F920FB60F921124CE
:101A30002F933F934F935F936F937F938F939F93D6
:101A4000AF93BF93EF93FF93DF93CF93CDB7DEB701
:101A50008091780090917900009729F0E0917800CA
:101A6000F09179000995CF91DF91FF91EF91BF91AE
:101A7000AF919F918F917F916F915F914F913F9126
:101A80002F910F900FBE0F901F9018951F920F92DD
:101A90000FB60F9211242F933F934F935F936F9341
:101AA0007F938F939F93AF93BF93EF93FF93DF93B6
:101AB000CF93CDB7DEB780917A0090917B000097ED
:101AC00029F0E0917A00F0917B000995CF91DF91A8
:101AD000FF91EF91BF91AF919F918F917F916F9106
:101AE0005F914F913F912F910F900FBE0F901F90DC
:101AF00018951F920F920FB60F9211242F933F93B8
:101B00004F935F936F937F938F939F93AF93BF9305
:101B1000EF93FF93DF93CF93CDB7DEB780917C0037
:101B200090917D00009729F0E0917C00F0917D007C
:101B30000995CF91DF91FF91EF91BF91AF919F9167
:101B40008F917F916F915F914F913F912F910F9066
:101B50000FBE0F901F9018951F920F920FB60F9205
:101B600011242F933F934F935F936F937F938F93A2
:101B70009F93AF93BF93EF93FF93DF93CF93CDB733
:101B8000DEB780917E0090917F00009729F0E09170
:101B90007E00F0917F000995CF91DF91FF91EF9149
:101BA000BF91AF919F918F917F916F915F914F9175
:101BB0003F912F910F900FBE0F901F9018951F927D
:101BC0000F920FB60F9211242F933F934F935F9371
:101BD0006F937F938F939F93AF93BF93EF93FF93F5
:101BE000DF93CF93CDB7DEB78091800090918100D5
:101BF000009729F0E0918000F09181000995CF9144
:101C0000DF91FF91EF91BF91AF919F918F917F9164
:101C10006F915F914F913F912F910F900FBE0F9059
:101C20001F901895EF920F93DF93CF9300D000D0C1
:101C300000D0CDB7DEB789836A834B832C830D83B5
:101C4000EE82A3E5B0E0E3E5F0E0808180688C936C
:101C5000A3E5B0E0E3E5F0E08081982F977B8981F0
:101C6000892B8C93A3E5B0E0E3E5F0E08081982F29
:101C70009F7C8A81892B8C938B8180937000E2E515
:101C8000F0E08C818083ECE5F0E08D818083A9E534
:101C9000B0E0E9E5F0E08081982F9C7F8E81892B70
:101CA0008C9326960FB6F894DEBF0FBECDBFCF91B2
:101CB000DF910F91EF900895DF93CF930F92CDB7FF
:101CC000DEB78983E2E5F0E0898180830F90CF91D0
:101CD000DF910895DF93CF93CDB7DEB7E2E5F0E073
:101CE0008081CF91DF910895DF93CF93CDB7DEB799
:101CF000A3E5B0E0E3E5F0E08081982F987F809144
:101D00007000892B8C93E2E5F0E01082CF91DF9197
:101D10000895DF93CF93CDB7DEB7A3E5B0E0E3E559
:101D2000F0E08081887F8C93CF91DF910895EF92CE
:101D30000F93DF93CF9300D000D00F92CDB7DEB7D3
:101D40009D838C831B821A828AEF898380E060E006
:101D500043E020E000E0EE240E94120E0E94740E88
:101D60001B821A820EC0E2E5F0E09081898198170B
:101D7000D0F3E2E5F0E010828A819B8101969B839B
:101D80008A832A813B818C819D812817390758F3EA
:101D90000F900F900F900F900F90CF91DF910F91B8
:101DA000EF900895EF920F93DF93CF93CDB7DEB707
:101DB00029970FB6F894DEBF0FBECDBF6E837F8329
:101DC000888799871A821B821C821D8280E1898301
:101DD00088E060E041E020E00981EE240E94120EDC
:101DE0000E94740E1A821B821C821D821EC0E8E5AE
:101DF000F0E08081882F90E0827090700097B9F3B6
:101E0000A8E5B0E0E8E5F0E0808182608C93E2E54F
:101E1000F0E010828A819B81AC81BD810196A11D79
:101E2000B11D8A839B83AC83BD832A813B814C8116
:101E30005D818E819F81A885B985281739074A075A
:101E40005B07A8F229960FB6F894DEBF0FBECDBF90
:101E5000CF91DF910F91EF900895EF920F93DF9361
:101E6000CF9300D000D0CDB7DEB78B836C8378944E
:101E70008C818135E8F483E089838C81882F90E020
:101E8000A0E0B0E020E039E140E050E0BC01CD014D
:101E90000E9479139B01AC0180E094E2A4EFB0E0D2
:101EA000BC01CD010E94B813DA01C9018A831CC0AC
:101EB00082E089838C81882F90E0A0E0B0E020E26E
:101EC00033E040E050E0BC01CD010E9479139B015A
:101ED000AC0180E094E2A4EFB0E0BC01CD010E942F
:101EE000B813DA01C9018A8388E060E0498120E003
:101EF0000A81EE246894E1F80E94120E0E94740E8A
:101F00000F900F900F900F90CF91DF910F91EF9066
:101F10000895DF93CF9300D0CDB7DEB79A8389833E
:101F200089819A8190937500809374000F900F902F
:101F3000CF91DF910895DF93CF9300D0CDB7DEB777
:101F40009A83898389819A81909373008093720028
:101F50000F900F90CF91DF910895AF92CF92DF92C3
:101F6000EF92FF920F931F93DF93CF93CDB7DEB71E
:101F70002D970FB6F894DEBF0FBECDBF89837B834C
:101F80006A834C833E832D8318870F83FA86E98604
:101F9000DC86CB86AD86AFE4B0E0EFE4F0E0808194
:101FA00088608C93AFE4B0E0EFE4F0E0808184607F
:101FB0008C93EEE4F0E011821082EEE4F0E089818F
:101FC000282F30E08A819B81822B932B9183808301
:101FD0008C8180937000ECE4F0E08D819E81918390
:101FE0008083EAE4F0E08F81988591838083E8E440
:101FF000F0E089859A8591838083A9E5B0E0E9E5E1
:10200000F0E08081982F937C8D85892B8C932D9681
:102010000FB6F894DEBF0FBECDBFCF91DF911F91F9
:102020000F91FF90EF90DF90CF90AF900895DF93E6
:10203000CF9300D0CDB7DEB79A838983ECE4F0E08C
:1020400089819A81918380830F900F90CF91DF9146
:102050000895DF93CF93CDB7DEB7ECE4F0E0808155
:102060009181CF91DF910895DF93CF93CDB7DEB704
:10207000AEE4B0E0EEE4F0E08081982F987F8091AC
:102080007000892B8C93ECE4F0E011821082CF91E8
:10209000DF910895DF93CF93CDB7DEB7AEE4B0E024
:1020A000EEE4F0E08081887F8C93CF91DF910895FA
:1020B000AF92CF92DF92EF92FF920F931F93DF9335
:1020C000CF9300D000D000D0CDB7DEB79E838D83F4
:1020D0001C821B828AEF90E09A83898380E060E013
:1020E00070E043E020E030E000E010E0EE24FF2468
:1020F000CC24DD24AA240E94AD0F0E9434101C823F
:102100001B8212C0ECE4F0E02081318189819A8148
:1021100028173907B8F3ECE4F0E0118210828B81C4
:102120009C8101969C838B832B813C818D819E8138
:102130002817390738F326960FB6F894DEBF0FBE7E
:10214000CDBFCF91DF911F910F91FF90EF90DF9066
:10215000CF90AF900895AF92CF92DF92EF92FF921F
:102160000F931F93DF93CF93CDB7DEB72A970FB6A8
:10217000F894DEBF0FBECDBF6F83788789879A87BB
:102180001B821C821D821E8280E190E09A838983DB
:10219000E981FA8188E060E070E041E020E030E031
:1021A0008F01EE24FF24CC24DD24AA240E94AD0F4D
:1021B0000E9434101B821C821D821E821FC0E8E513
:1021C000F0E08081882F90E0807190700097B9F3E3
:1021D000A8E5B0E0E8E5F0E0808180618C93ECE474
:1021E000F0E0118210828B819C81AD81BE810196CD
:1021F000A11DB11D8B839C83AD83BE832B813C814C
:102200004D815E818F819885A985BA852817390708
:102210004A075B07A0F22A960FB6F894DEBF0FBEFE
:10222000CDBFCF91DF911F910F91FF90EF90DF9085
:10223000CF90AF900895AF92CF92DF92EF92FF923E
:102240000F931F93DF93CF9300D000D0CDB7DEB7AD
:102250008B836C8378948C818135E8F483E0898367
:102260008C81882F90E0A0E0B0E020E039E140E0F0
:1022700050E0BC01CD010E9479139B01AC0180E0CC
:1022800094E2A4EFB0E0BC01CD010E94B813DA01E2
:10229000C9018A831CC082E089838C81882F90E0E9
:1022A000A0E0B0E020E233E040E050E0BC01CD012E
:1022B0000E9479139B01AC0180E094E2A4EFB0E0AE
:1022C000BC01CD010E94B813DA01C9018A838A8159
:1022D000E82FF0E088E060E070E0498120E030E045
:1022E0008F01EE24FF24CC24DD24AA246894A4F8D2
:1022F0000E94AD0F0E9434100F900F900F900F901E
:10230000CF91DF911F910F91FF90EF90DF90CF90D1
:10231000AF900895DF93CF9300D0CDB7DEB79A8307
:10232000898389819A8190937D0080937C000F90AE
:102330000F90CF91DF910895DF93CF9300D0CDB769
:10234000DEB79A83898389819A81909379008093FB
:1023500078000F900F90CF91DF910895DF93CF9386
:1023600000D0CDB7DEB79A83898389819A81909313
:102370007B0080937A000F900F90CF91DF910895AA
:10238000DF93CF9300D0CDB7DEB79A83898389815D
:102390009A8190937700809376000F900F90CF9161
:1023A000DF910895CF92EF920F93DF93CF93CDB744
:1023B000DEB727970FB6F894DEBF0FBECDBF898377
:1023C0006A834B832C830D83EE82CF82A5E4B0E039
:1023D000E5E4F0E0808180688C93A5E4B0E0E5E47A
:1023E000F0E08081982F977B8981892B8C93A5E4DD
:1023F000B0E0E5E4F0E08081982F9F7C8A81892B12
:102400008C938B8180937100E4E4F0E08C81808375
:10241000E3E4F0E08D818083A9E5B0E0E9E5F0E058
:102420008081982F9F738F81892B8C9327960FB66D
:10243000F894DEBF0FBECDBFCF91DF910F91EF902B
:10244000CF900895DF93CF930F92CDB7DEB78983F6
:10245000E4E4F0E0898180830F90CF91DF910895CB
:10246000DF93CF93CDB7DEB7E4E4F0E08081CF9186
:10247000DF910895DF93CF93CDB7DEB7A5E4B0E049
:10248000E5E4F0E08081982F987F80917100892B9E
:102490008C93E4E4F0E01082CF91DF910895DF9314
:1024A000CF93CDB7DEB7A5E4B0E0E5E4F0E08081FE
:1024B000887F8C93CF91DF910895CF92EF920F9305
:1024C000DF93CF9300D000D00F92CDB7DEB79D83BE
:1024D0008C831B821A828AEF898380E060E044E06B
:1024E00020E000E0EE24CC240E94D2110E943A1297
:1024F0001B821A820EC0E4E4F0E090818981981773
:10250000D0F3E4E4F0E010828A819B8101969B8302
:102510008A832A813B818C819D812817390758F352
:102520000F900F900F900F900F90CF91DF910F9120
:10253000EF90CF900895CF92EF920F93DF93CF93C8
:10254000CDB7DEB729970FB6F894DEBF0FBECDBF6B
:102550006E837F83888799871A821B821C821D82E3
:1025600080E1898388E060E041E020E00981EE2499
:10257000CC240E94D2110E943A121A821B821C8221
:102580001D821AC0E8E5F0E080818823DCF7A8E529
:10259000B0E0E8E5F0E0808180688C93E4E4F0E06E
:1025A00010828A819B81AC81BD810196A11DB11DE4
:1025B0008A839B83AC83BD832A813B814C815D816F
:1025C0008E819F81A885B985281739074A075B073F
:1025D000C8F229960FB6F894DEBF0FBECDBFCF91DB
:1025E000DF910F91EF90CF900895CF92EF920F93DC
:1025F000DF93CF9300D000D0CDB7DEB78B836C8351
:1026000078948C818135E8F483E089838C81882FEC
:1026100090E0A0E0B0E020E039E140E050E0BC0113
:10262000CD010E9479139B01AC0180E094E2A4EFFC
:10263000B0E0BC01CD010E94B813DA01C9018A8360
:102640001CC082E089838C81882F90E0A0E0B0E0FC
:1026500020E233E040E050E0BC01CD010E9479135C
:102660009B01AC0180E094E2A4EFB0E0BC01CD019D
:102670000E94B813DA01C9018A8388E060E04981C9
:1026800020E00A81EE240F2EF0E8CF2EF02D0E94DC
:10269000D2110E943A120F900F900F900F90CF918D
:1026A000DF910F91EF90CF900895DF93CF9300D0FB
:1026B000CDB7DEB79A83898389819A81909381000F
:1026C000809380000F900F90CF91DF910895DF935A
:1026D000CF9300D0CDB7DEB79A83898389819A8161
:1026E00090937F0080937E000F900F90CF91DF91A9
:1026F0000895629FD001739FF001829FE00DF11D4C
:10270000649FE00DF11D929FF00D839FF00D749F6B
:10271000F00D659FF00D9927729FB00DE11DF91F17
:10272000639FB00DE11DF91FBD01CF011124089574
:10273000991B79E004C0991F961708F0961B881F13
:102740007A95C9F780950895AA1BBB1B51E107C074
:10275000AA1FBB1FA617B70710F0A61BB70B881F31
:10276000991F5A95A9F780959095BC01CD010895C0
:10277000A1E21A2EAA1BBB1BFD010DC0AA1FBB1F85
:10278000EE1FFF1FA217B307E407F50720F0A21BF7
:10279000B30BE40BF50B661F771F881F991F1A9464
:1027A00069F760957095809590959B01AC01BD018E
:0827B000CF010895F894FFCF5A
:0427B800FF0100001D
:00000001FF
