:100000000C942A000C9447000C9447000C94441262
:100010000C945E1C0C94911C0C94921B0C94C51BAC
:100020000C94F81B0C942B1C0C942C1B0C945F1B35
:100030000C946C110C940F130C9442130C947513C4
:100040000C9447000C9447000C9447000C94470014
:100050000C94470011241FBECFE5D8E0DEBFCDBF12
:1000600010E0A0E6B0E0E0ECF5E402C005900D92EF
:10007000A037B107D9F710E0A0E7B0E001C01D92AA
:10008000AE38B107E1F70E94A3050C94DE220C9470
:100090000000EF92FF920F931F937B018C0120E0F1
:1000A00030E040E05FE40E94490388238CF0C801FF
:1000B000B70120E030E040E05FE40E94C1010E940F
:1000C000A9039B01AC01205030404040504806C07D
:1000D000C801B7010E94A9039B01AC01B901CA0183
:1000E0001F910F91FF90EF900895A0E0B0E0EBE733
:1000F000F0E00C94A722DC012B01FA019C919230D4
:1001000008F439C1EB018881823008F433C194309E
:1001100069F4843009F02FC111969C91119789815F
:10012000981709F428C1A0E6B0E025C1843009F48D
:1001300021C18230A9F4923009F01DC19A01AD01AC
:1001400088E0EA010990AE01E90109929E0181501F
:10015000C1F7E201898111969C918923818308C1AD
:10016000923009F407C112962D903C901397EB0141
:100170008A819B811496AD90BD90CD90DC901797AD
:10018000EC80FD800E811F819101281B390BB90184
:1001900037FF04C066277727621B730B6032710537
:1001A0000CF061C0121613066CF537014801062EDB
:1001B00004C096948794779467940A94D2F721E0C8
:1001C00030E040E050E004C0220F331F441F551FB1
:1001D0006A95D2F721503040404050402E213F21B7
:1001E00040235123211531054105510521F021E01E
:1001F00030E040E050E079018A01E628F72808293C
:1002000019293CC0232BD1F1260E371E350146019A
:10021000062E04C096948794779467940A94D2F734
:1002200021E030E040E050E004C0220F331F441FC3
:10023000551F6A95D2F721503040404050402A2146
:100240003B214C215D21211531054105510521F04E
:1002500021E030E040E050E059016A01A628B728CB
:10026000C828D9280BC0821593052CF01C01AA249C
:10027000BB24650103C0EE24FF24870111969C91E5
:10028000D20111968C91981709F445C0992339F041
:10029000A80197012A193B094C095D0906C0A6016E
:1002A00095012E193F09400B510B57FD08C01182D3
:1002B0003382228224833583468357831DC081E0A5
:1002C00081833382228288279927DC01821B930B4A
:1002D000A40BB50B84839583A683B7830DC0220F2F
:1002E000331F441F551F24833583468357838281E0
:1002F000938101979383828324813581468157813D
:10030000DA01C9010197A109B1098F5F9F4FAF4F72
:10031000BF4328F30BC0918333822282EA0CFB1C7B
:100320000C1D1D1DE482F5820683178383E0808304
:10033000248135814681578157FF1AC0C901AA27F8
:1003400097FDA095BA2F81709070A070B0705695EF
:10035000479537952795822B932BA42BB52B848318
:100360009583A683B7838281938101969383828349
:10037000DF0101C0D201CD01CDB7DEB7E2E10C94BF
:10038000C322A0E2B0E0E7ECF1E00C94B322698371
:100390007A838B839C832D833E834F835887E9E048
:1003A000EE2EF12CEC0EFD1ECE010196B7010E943F
:1003B000D2048E010F5E1F4FCE010596B8010E9438
:1003C000D2048A8991E089278A8BC701B801AE01DE
:1003D000475E5F4F0E9475000E94FD03A096E6E015
:1003E0000C94CF22A0E2B0E0E8EFF1E00C94B3224D
:1003F00069837A838B839C832D833E834F835887C5
:10040000F9E0EF2EF12CEC0EFD1ECE010196B701A6
:100410000E94D2048E010F5E1F4FCE010596B801D7
:100420000E94D204C701B801AE01475E5F4F0E942F
:1004300075000E94FD03A096E6E00C94CF22A0E296
:10044000B0E0E5E2F2E00C94A72269837A838B8323
:100450009C832D833E834F835887CE010196BE0136
:10046000675F7F4F0E94D204CE010596BE016F5E8A
:100470007F4F0E94D2049985923088F0898982301A
:10048000C8F0943019F4823051F404C0843029F457
:10049000923081F480E690E0C6C0923049F420E0CA
:1004A0009A858A89981321E02A87CE010996BBC0D4
:1004B000823049F420E09A858A89981321E02A8BBA
:1004C000CE014196B0C02D843E844F8458886D88FB
:1004D0007E888F88988CEE24FF248701AA24BB2471
:1004E000650140E050E060E070E0E0E0F0E0C10174
:1004F00081709070892BE9F0E60CF71C081D191D1E
:100500009A01AB012A0D3B1D4C1D5D1D80E090E062
:10051000A0E0B0E0E614F7040805190520F481E036
:1005200090E0A0E0B0E0BA01A901480F591F6A1F8E
:100530007B1FAA0CBB1CCC1CDD1C97FE08C081E0F5
:1005400090E0A0E0B0E0A82AB92ACA2ADB2A3196B6
:10055000E032F10549F0660C771C881C991C569412
:10056000479437942794C3CFFA85EA892B893C892D
:100570008B859C85280F391F2E5F3F4F17C0CA01FE
:1005800081709070892B61F016950795F794E79428
:1005900080E090E0A0E0B0E8E82AF92A0A2B1B2BC3
:1005A00076956795579547952F5F3F4F77FDE7CF36
:1005B0000CC0440F551F661F771F17FD4160EE0CDE
:1005C000FF1C001F111F21503040403090E05907A0
:1005D00090E0690790E4790760F32B8F3C8FDB0193
:1005E000CA018F779070A070B07080349105A1051A
:1005F000B10561F447FD0AC0E114F10401051105DC
:1006000029F0405C5F4F6F4F7F4F40781A8EFE1786
:1006100011F081E08A8F4D8F5E8F6F8F78A383E01A
:10062000898FCE0149960E94FD03A096E2E10C94C9
:10063000C322A8E1B0E0EFE1F3E00C94B3226983B8
:100640007A838B839C832D833E834F83588789E0F5
:10065000E82EF12CEC0EFD1ECE010196B7010E9492
:10066000D2048E010F5E1F4FCE010596B8010E9485
:10067000D2048985823040F08989823028F0C70110
:10068000B8010E944A0501C08FEF6896E6E00C941D
:10069000CF22A8E1B0E0EFE4F3E00C94B322698349
:1006A0007A838B839C832D833E834F83588789E095
:1006B000E82EF12CEC0EFD1ECE010196B7010E9432
:1006C000D2048E010F5E1F4FCE010596B8010E9425
:1006D000D2048985823040F08989823028F0C701B0
:1006E000B8010E944A0501C08FEF6896E6E00C94BD
:1006F000CF22A8E1B0E0EFE7F3E00C94B3226983E6
:100700007A838B839C832D833E834F83588789E034
:10071000E82EF12CEC0EFD1ECE010196B7010E94D1
:10072000D2048E010F5E1F4FCE010596B8010E94C4
:10073000D2048985823040F08989823028F0C7014F
:10074000B8010E944A0501C081E06896E6E00C9479
:10075000CF22ACE0B0E0EFEAF3E00C94B72269837B
:100760007A838B839C83CE010196BE016B5F7F4FA2
:100770000E94D2048D81823061F1823050F1843048
:1007800021F48E81882351F12EC02F81388537FDC9
:1007900020C06E812F3131051CF06623F9F023C093
:1007A0008EE190E0821B930B29853A854B855C8511
:1007B00004C056954795379527958A95D2F76623B5
:1007C000B1F050954095309521953F4F4F4F5F4F79
:1007D0000EC020E030E040E050E009C02FEF3FEFD6
:1007E0004FEF5FE704C020E030E040E050E8B9019F
:1007F000CA012C96E2E00C94D322DF92EF92FF9292
:100800000F931F93FC01E480F58006811781D1804E
:100810008081823048F480E090E0A0E1B0E0E82AF6
:10082000F92A0A2B1B2BA5C0843009F49FC0823003
:1008300021F4EE24FF24870105C0E114F104010531
:10084000110519F4E0E0F0E096C0628173819FEF3A
:10085000623879070CF05BC022E83FEF261B370BAC
:100860002A3131052CF020E030E040E050E02AC091
:10087000B801A701022E04C0769567955795479554
:100880000A94D2F781E090E0A0E0B0E004C0880FC5
:10089000991FAA1FBB1F2A95D2F70197A109B10979
:1008A0008E219F21A023B1230097A105B10521F03E
:1008B00081E090E0A0E0B0E09A01AB01282B392B59
:1008C0004A2B5B2BDA01C9018F779070A070B07052
:1008D00080349105A105B10539F427FF09C0205CDA
:1008E0003F4F4F4F5F4F04C0215C3F4F4F4F5F4F13
:1008F000E0E0F0E02030A0E03A07A0E04A07A0E402
:100900005A0710F0E1E0F0E079018A0127C0603871
:10091000710564F5FB01E158FF4FD801C7018F77DE
:100920009070A070B07080349105A105B10539F4C4
:10093000E7FE0DC080E490E0A0E0B0E004C08FE3EB
:1009400090E0A0E0B0E0E80EF91E0A1F1B1F17FFA1
:1009500005C016950795F794E794319687E01695AC
:100960000795F794E7948A95D1F705C0EE24FF2404
:100970008701EFEFF0E06E2F679566276795902F60
:100980009F77D794DD24D7948E2F8695492F462BB9
:10099000582F5D29B701CA011F910F91FF90EF9069
:1009A000DF900895FC01DB01408151812281622F9B
:1009B0006F7770E0221F2227221F9381892F880FD3
:1009C000822B282F30E0991F9927991F11969C930D
:1009D000119721153105A9F54115510561057105DD
:1009E00011F482E037C082E89FEF13969C938E93B8
:1009F00012979A01AB0167E0220F331F441F551F66
:100A00006A95D1F783E08C930DC0220F331F441FEA
:100A1000551F12968D919C911397019713969C9355
:100A20008E931297203080E0380780E0480780E4FA
:100A3000580758F314962D933D934D935C93179755
:100A400008952F3F310579F4411551056105710570
:100A500019F484E08C93089564FF03C081E08C93C3
:100A600012C01C9210C02F57304013963C932E9307
:100A7000129783E08C9387E0440F551F661F771F02
:100A80008A95D1F7706414964D935D936D937C9322
:100A9000179708951F93DC01FB019C91923008F495
:100AA00047C08081823008F443C0943051F41196DD
:100AB0001C91843099F58181682F70E0611B710968
:100AC0003FC0843021F0923031F48230B9F181811D
:100AD000882389F12DC011961C9111978230F1F075
:100AE00081811817D9F412962D913C911397828128
:100AF00093818217930794F028173907BCF0149656
:100B00008D919D910D90BC91A02D248135814681C0
:100B10005781281739074A075B0718F4112341F05A
:100B20000AC082179307A407B50740F4112319F0F0
:100B300061E070E005C06FEF7FEF02C060E070E041
:100B4000CB011F910895DF93CF93CDB7DEB72F97D9
:100B50000FB6F894DEBF0FBECDBF19821A821B827A
:100B60001C82CE0105969C878B87E9E6F0E0FE8724
:100B7000ED87F6E0FF87ED85FE8500808D859E85FB
:100B800001969E878D87EB85FC8500828B859C85F1
:100B900001969C878B879F8591509F87EF85EE23D9
:100BA00051F768EC70E080E090E00E94D31ACE012B
:100BB00005960E94DE1368EE73E080E090E00E94EC
:100BC000D31A898129813A814B815C812F5F3F4F04
:100BD0004F4F5F4F29833A834B835C830E94A2145B
:100BE000EACFDF93CF93CDB7DEB7CF91DF910895F2
:100BF000DF93CF93CDB7DEB781E080937000CF91C4
:100C0000DF910895DF93CF93CDB7DEB7CF91DF911A
:100C10000895DF93CF9300D000D00F92CDB7DEB709
:100C20001D8219821A821B821C8280E00E94FB199D
:100C300081E00E94FB1952C080E00E94461A8D811B
:100C40009AE0692F0E944A229AE0692F0E944A2264
:100C5000892F982F80E0692F0E949E1A61E070E032
:100C600080E090E00E94D31A80E00E94731A81E035
:100C70000E94461A8D819AE0692F0E944A22892F8C
:100C8000982F81E0692F0E949E1A61E070E080E059
:100C900090E00E94D31A81E00E94731A89819A81A0
:100CA000AB81BC810196A11DB11D89839A83AB8361
:100CB000BC8389819A81AB81BC8125ED31E040E024
:100CC00050E0BC01CD010E946A22DC01CB010097FB
:100CD000A105B10519F48D818F5F8D838D818436D7
:100CE00008F4AACFFBCFDF93CF9300D0CDB7DEB708
:100CF0001A8284E1898381E00E945D1881E00E946C
:100D0000651984E1898381E00E9493198230C9F7D3
:100D100081E00E9493198823D9F78A818F5F8A83A3
:100D200024C081E00E94A01817C061E370E080E059
:100D300090E00E94D31A81E00E949319823049F416
:100D40006CE271E080E090E00E94D31A8981825FBA
:100D500089838981815089838981882331F781E062
:100D60000E94E3188A8181508A838A818823C9F688
:100D70000F900F90CF91DF910895DF93CF9300D024
:100D80000F92CDB7DEB7198281E00E945D1882E034
:100D90000E945D1883E00E945D188981282F30E051
:100DA0003B832A838A819B8181309105A9F02A8126
:100DB0003B8122303105E1F08A819B81009711F55A
:100DC00081E00E94A01882E00E94E31883E00E9464
:100DD000E31881E0898316C081E00E94E31882E075
:100DE0000E94A01883E00E94E31882E089830AC071
:100DF00081E00E94E31882E00E94E31883E00E94F1
:100E0000A018198268EE73E080E090E00E94D31A87
:100E1000C4CFDF93CF93CDB7DEB783E060E34FEF6E
:100E20000E94C516AFE4B0E0EFE4F0E080818B7F74
:100E30008C93AFE4B0E0EFE4F0E08081877F8C93A7
:100E4000AFE4B0E0EFE4F0E080818E7F8C93AFE41C
:100E5000B0E0EFE4F0E0808182608C93AEE4B0E03B
:100E6000EEE4F0E0808188608C93AEE4B0E0EEE4E4
:100E7000F0E0808180618C93AFE4B0E0EFE4F0E0DB
:100E800080818F7B8C93AFE4B0E0EFE4F0E0808171
:100E900080688C93AFE4B0E0EFE4F0E080818F7E77
:100EA0008C93AFE4B0E0EFE4F0E0808180628C935B
:100EB000AEE4B0E0EEE4F0E080818F7B8C93AEE4B2
:100EC000B0E0EEE4F0E080818F778C93ECE4F0E02A
:100ED00011821082CF91DF910895EF92FF920F93CC
:100EE0001F93DF93CF9300D000D00F92CDB7DEB722
:100EF00089834A835B836C837D838A819B81AC81F8
:100F0000BD81853F9105A105B105D8F006E410E04B
:100F100080E094E2A4EFB0E02A813B814C815D81C6
:100F2000BC01CD010E946A22DA01C901F801918356
:100F30008083AEE4B0E0EEE4F0E0808181608C93E9
:100F400031C08A819B81AC81BD818F319105A10522
:100F5000B10540F106E410E08A819B81AC81BD813E
:100F6000880F991FAA1FBB1F880F991FAA1FBB1F9D
:100F7000880F991FAA1FBB1F9C01AD0180E094E25E
:100F8000A4EFB0E0BC01CD010E946A22DA01C901E0
:100F9000F80191838083AEE4B0E0EEE4F0E080817C
:100FA00082608C930F2EFAE4EF2EFF24F02D8981BE
:100FB000082F10E0E6E4F0E08081918124E630E043
:100FC000B9010E945622CB019C01029FC001039FE0
:100FD000900D129F900D1124F701918380830F2EA5
:100FE000F8E4EF2EFF24F02D8981082F10E0E6E4CD
:100FF000F0E08081918124E630E0B9010E94562220
:10100000CB019C01029FC001039F900D129F900D88
:101010001124F701918380830F900F900F900F9010
:101020000F90CF91DF911F910F91FF90EF90089556
:10103000DF93CF93CDB7DEB7AAE3B0E0EAE3F0E009
:1010400080818E608C93AAE3B0E0EAE3F0E08081D7
:10105000806F8C9382E00E94390888E20E943908F0
:101060008CE00E94390881E00E943908CF91DF911D
:1010700008950F931F93DF93CF93CDB7DEB7C35679
:10108000D0400FB6F894DEBF0FBECDBFFE01ED59C4
:10109000FF4F8083ABE3B0E0EBE3F0E080818D7F36
:1010A0008C93ABE3B0E0EBE3F0E080818B7F8C933B
:1010B000FE01E15AFF4F80E090E0A0E8BFE38083AB
:1010C0009183A283B3838E01055A1F4FFE01E15A1B
:1010D000FF4F608171818281938120E030E04AE797
:1010E00055E40E941F02DC01CB01F801808391834B
:1010F000A283B383FE01E55AFF4F60817181828133
:10110000938120E030E040E85FE30E947903882388
:1011100044F4FE01E75AFF4F81E090E09183808321
:1011200064C0FE01E55AFF4F608171818281938125
:1011300020E03FEF4FE757E40E94190318160CF028
:1011400043C0FE01E15AFF4F60817181828193812A
:1011500020E030E040E251E40E941F02DC01CB01BC
:101160008E01075A1F4FBC01CD010E944900DC01CE
:10117000CB01F801918380831FC0FE01E95AFF4F24
:1011800080E991E091838083FE01E95AFF4F8081DD
:1011900091810197F1F7FE01E95AFF4F9183808316
:1011A000DE01A75ABF4FFE01E75AFF4F80819181B0
:1011B000019711969C938E93FE01E75AFF4F808111
:1011C00091810097D1F627C08E01075A1F4FFE016B
:1011D000E55AFF4F60817181828193810E944900AD
:1011E000DC01CB01F80191838083DE01AB5ABF4F54
:1011F000FE01E75AFF4F808191818D939C93FE0100
:10120000EB5AFF4F808191810197F1F7FE01EB5A74
:10121000FF4F91838083ABE3B0E0EBE3F0E08081AC
:1012200088608C93FE01EF5AFF4F80E090E0A0E8C9
:10123000BFE380839183A283B3838E01035B1F4F3F
:10124000FE01EF5AFF4F608171818281938120E01E
:1012500030E04AE755E40E941F02DC01CB01F801AF
:1012600080839183A283B383FE01E35BFF4F6081A0
:1012700071818281938120E030E040E85FE30E9449
:101280007903882344F4FE01E55BFF4F81E090E0A1
:101290009183808364C0FE01E35BFF4F60817181B5
:1012A0008281938120E03FEF4FE757E40E941903CA
:1012B00018160CF043C0FE01EF5AFF4F6081718198
:1012C0008281938120E030E040E251E40E941F02DD
:1012D000DC01CB018E01055B1F4FBC01CD010E94DB
:1012E0004900DC01CB01F801918380831FC0FE011E
:1012F000E75BFF4F80E991E091838083FE01E75B2C
:10130000FF4F808191810197F1F7FE01E75BFF4F6D
:1013100091838083DE01A55BBF4FFE01E55BFF4F3C
:1013200080819181019711969C938E93FE01E55BDC
:10133000FF4F808191810097D1F627C08E01055B18
:101340001F4FFE01E35BFF4F6081718182819381BA
:101350000E944900DC01CB01F80191838083DE010A
:10136000A95BBF4FFE01E55BFF4F808191818D93AB
:101370009C93FE01E95BFF4F808191810197F1F71A
:10138000FE01E95BFF4F91838083ABE3B0E0EBE3C9
:10139000F0E08081982F9F70FE01ED59FF4F808112
:1013A000807F892B8C93FE01ED5BFF4F80E090E006
:1013B000A0E8BFE380839183A283B3838E01015CA5
:1013C0001F4FFE01ED5BFF4F608171818281938130
:1013D00020E030E04AE755E40E941F02DC01CB0127
:1013E000F80180839183A283B383FE01FF9660811D
:1013F00071818281938120E030E040E85FE30E94C8
:10140000790388232CF481E090E09EAF8DAF46C035
:10141000FE01FF96608171818281938120E03FEF20
:101420004FE757E40E941903181664F5FE01ED5BBF
:10143000FF4F608171818281938120E030E040E242
:1014400051E40E941F02DC01CB01BC01CD010E94CE
:101450004900DC01CB019EAF8DAF0FC080E991E068
:101460009CAF8BAF8BAD9CAD0197F1F79CAF8BAF71
:101470008DAD9EAD01979EAF8DAF8DAD9EAD0097AA
:1014800069F716C0FE01FF966081718182819381A8
:101490000E944900DC01CB019EAF8DAF8DAD9EADAA
:1014A0009AAF89AF89AD9AAD0197F1F79AAF89AF3D
:1014B000ABE3B0E0EBE3F0E08081877F8C9380E0EA
:1014C00090E0A0E8BFE38DAB9EABAFABB8AF6DA92A
:1014D0007EA98FA998AD20E030E04AE755E40E944C
:1014E0001F02DC01CB0189AB9AABABABBCAB69A9EA
:1014F0007AA98BA99CA920E030E040E85FE30E9434
:10150000790388232CF481E090E098AB8FA73FC04B
:1015100069A97AA98BA99CA920E03FEF4FE757E47E
:101520000E94190318164CF56DA97EA98FA998ADD4
:1015300020E030E040E251E40E941F02DC01CB01D8
:10154000BC01CD010E944900DC01CB0198AB8FA703
:101550000FC080E991E09EA78DA78DA59EA501975C
:10156000F1F79EA78DA78FA598A9019798AB8FA794
:101570008FA598A9009769F714C069A97AA98BA9C2
:101580009CA90E944900DC01CB0198AB8FA78FA5D5
:1015900098A99CA78BA78BA59CA50197F1F79CA761
:1015A0008BA7ABE3B0E0EBE3F0E0808188608C9345
:1015B00080E090E0A0E8BFE38FA398A7A9A7BAA70F
:1015C0006FA178A589A59AA520E030E04AE755E407
:1015D0000E941F02DC01CB018BA39CA3ADA3BEA381
:1015E0006BA17CA18DA19EA120E030E040E85FE3EB
:1015F0000E94790388232CF481E090E09AA389A3C8
:101600003FC06BA17CA18DA19EA120E03FEF4FE7E1
:1016100057E40E94190318164CF56FA178A589A507
:101620009AA520E030E040E251E40E941F02DC0174
:10163000CB01BC01CD010E944900DC01CB019AA382
:1016400089A30FC080E991E098A38F8F8F8D98A117
:101650000197F1F798A38F8F89A19AA101979AA377
:1016600089A389A19AA1009769F714C06BA17CA1F5
:101670008DA19EA10E944900DC01CB019AA389A300
:1016800089A19AA19E8F8D8F8D8D9E8D0197F1F7E7
:101690009E8F8D8FABE3B0E0EBE3F0E08081282FED
:1016A0002F70FE01ED59FF4F8081882F90E08295C9
:1016B0009295907F9827807F9827822B8C9380E04B
:1016C00090E0A0E8BFE3898F9A8FAB8FBC8F698DC4
:1016D0007A8D8B8D9C8D20E030E04AE755E40E94A6
:1016E0001F02DC01CB018D8B9E8BAF8BB88F6D8978
:1016F0007E898F89988D20E030E040E85FE30E948A
:10170000790388232CF481E090E09C8B8B8B3FC085
:101710006D897E898F89988D20E03FEF4FE757E4F0
:101720000E94190318164CF5698D7A8D8B8D9C8D4E
:1017300020E030E040E251E40E941F02DC01CB01D6
:10174000BC01CD010E944900DC01CB019C8B8B8B3D
:101750000FC080E991E09A8B898B89899A890197DA
:10176000F1F79A8B898B8B899C8901979C8B8B8B4A
:101770008B899C89009769F714C06D897E898F8950
:10178000988D0E944900DC01CB019C8B8B8B8B894F
:101790009C89988B8F878F8598890197F1F7988B13
:1017A0008F87ABE3B0E0EBE3F0E08081877F8C9341
:1017B00080E090E0A0E8BFE38B879C87AD87BE8781
:1017C0006B857C858D859E8520E030E04AE755E479
:1017D0000E941F02DC01CB018F839887A987BA87FB
:1017E0006F81788589859A8520E030E040E85FE365
:1017F0000E94790388232CF481E090E09E838D83FE
:101800003FC06F81788589859A8520E03FEF4FE75B
:1018100057E40E94190318164CF56B857C858D855D
:101820009E8520E030E040E251E40E941F02DC018E
:10183000CB01BC01CD010E944900DC01CB019E839C
:101840008D830FC080E991E09C838B838B819C8189
:101850000197F1F79C838B838D819E8101979E83F5
:101860008D838D819E81009769F714C06F81788583
:1018700089859A850E944900DC01CB019E838D8376
:101880008D819E819A83898389819A810197F1F75D
:101890009A838983CD59DF4F0FB6F894DEBF0FBE10
:1018A000CDBFCF91DF911F910F9108950F931F939B
:1018B000DF93CF93CDB7DEB7C356D0400FB6F894C1
:1018C000DEBF0FBECDBFFE01ED59FF4F8083ABE3FE
:1018D000B0E0EBE3F0E0808182608C93ABE3B0E0BA
:1018E000EBE3F0E080818B7F8C93FE01E15AFF4FA8
:1018F00080E090E0A0E8BFE380839183A283B3837C
:101900008E01055A1F4FFE01E15AFF4F6081718120
:101910008281938120E030E04AE755E40E941F0273
:10192000DC01CB01F80180839183A283B383FE01A4
:10193000E55AFF4F608171818281938120E030E020
:1019400040E85FE30E947903882344F4FE01E75AEC
:10195000FF4F81E090E09183808364C0FE01E55AEF
:10196000FF4F608171818281938120E03FEF4FE7DB
:1019700057E40E94190318160CF043C0FE01E15A07
:10198000FF4F608171818281938120E030E040E2ED
:1019900051E40E941F02DC01CB018E01075A1F4F48
:1019A000BC01CD010E944900DC01CB01F80191830B
:1019B00080831FC0FE01E95AFF4F80E991E09183C7
:1019C0008083FE01E95AFF4F808191810197F1F7F1
:1019D000FE01E95AFF4F91838083DE01A75ABF4F72
:1019E000FE01E75AFF4F80819181019711969C93E8
:1019F0008E93FE01E75AFF4F808191810097D1F6C7
:101A000027C08E01075A1F4FFE01E55AFF4F608124
:101A10007181828193810E944900DC01CB01F80130
:101A200091838083DE01AB5ABF4FFE01E75AFF4F1F
:101A3000808191818D939C93FE01EB5AFF4F8081B1
:101A400091810197F1F7FE01EB5AFF4F918380835B
:101A5000ABE3B0E0EBE3F0E0808188608C93FE01C3
:101A6000EF5AFF4F80E090E0A0E8BFE380839183CE
:101A7000A283B3838E01035B1F4FFE01EF5AFF4F1A
:101A8000608171818281938120E030E04AE755E4F2
:101A90000E941F02DC01CB01F80180839183A283A5
:101AA000B383FE01E35BFF4F60817181828193818B
:101AB00020E030E040E85FE30E947903882344F4AB
:101AC000FE01E55BFF4F81E090E09183808364C07D
:101AD000FE01E35BFF4F608171818281938120E091
:101AE0003FEF4FE757E40E94190318160CF043C06C
:101AF000FE01EF5AFF4F608171818281938120E066
:101B000030E040E251E40E941F02DC01CB018E0173
:101B1000055B1F4FBC01CD010E944900DC01CB01D8
:101B2000F801918380831FC0FE01E75BFF4F80E9CE
:101B300091E091838083FE01E75BFF4F808191817B
:101B40000197F1F7FE01E75BFF4F91838083DE0190
:101B5000A55BBF4FFE01E55BFF4F8081918101973F
:101B600011969C938E93FE01E55BFF4F80819181DE
:101B70000097D1F627C08E01055B1F4FFE01E35B86
:101B8000FF4F60817181828193810E944900DC0155
:101B9000CB01F80191838083DE01A95BBF4FFE0179
:101BA000E55BFF4F808191818D939C93FE01E95B02
:101BB000FF4F808191810197F1F7FE01E95BFF4FB3
:101BC00091838083ABE3B0E0EBE3F0E08081982F7A
:101BD0009F70FE01ED59FF4F8081807F892B8C9390
:101BE000FE01ED5BFF4F80E090E0A0E8BFE3808363
:101BF0009183A283B3838E01015C1F4FFE01ED5BD5
:101C0000FF4F608171818281938120E030E04AE75B
:101C100055E40E941F02DC01CB01F801808391830F
:101C2000A283B383FE01FF966081718182819381DB
:101C300020E030E040E85FE30E94790388232CF441
:101C400081E090E09EAF8DAF46C0FE01FF966081BF
:101C500071818281938120E03FEF4FE757E40E943A
:101C60001903181664F5FE01ED5BFF4F6081718169
:101C70008281938120E030E040E251E40E941F0223
:101C8000DC01CB01BC01CD010E944900DC01CB018C
:101C90009EAF8DAF0FC080E991E09CAF8BAF8BAD55
:101CA0009CAD0197F1F79CAF8BAF8DAD9EAD0197C9
:101CB0009EAF8DAF8DAD9EAD009769F716C0FE014A
:101CC000FF9660817181828193810E944900DC01CD
:101CD000CB019EAF8DAF8DAD9EAD9AAF89AF89AD73
:101CE0009AAD0197F1F79AAF89AFABE3B0E0EBE3C0
:101CF000F0E08081877F8C9380E090E0A0E8BFE3F4
:101D00008DAB9EABAFABB8AF6DA97EA98FA998ADD7
:101D100020E030E04AE755E40E941F02DC01CB01DD
:101D200089AB9AABABABBCAB69A97AA98BA99CA9CF
:101D300020E030E040E85FE30E94790388232CF440
:101D400081E090E098AB8FA73FC069A97AA98BA9E1
:101D50009CA920E03FEF4FE757E40E9419031816B3
:101D60004CF56DA97EA98FA998AD20E030E040E246
:101D700051E40E941F02DC01CB01BC01CD010E9495
:101D80004900DC01CB0198AB8FA70FC080E991E03F
:101D90009EA78DA78DA59EA50197F1F79EA78DA75C
:101DA0008FA598A9019798AB8FA78FA598A90097A1
:101DB00069F714C069A97AA98BA99CA90E94490056
:101DC000DC01CB0198AB8FA78FA598A99CA78BA707
:101DD0008BA59CA50197F1F79CA78BA7ABE3B0E07F
:101DE000EBE3F0E0808188608C9380E090E0A0E8F5
:101DF000BFE38FA398A7A9A7BAA76FA178A589A5C4
:101E00009AA520E030E04AE755E40E941F02DC0179
:101E1000CB018BA39CA3ADA3BEA36BA17CA18DA181
:101E20009EA120E030E040E85FE30E947903882330
:101E30002CF481E090E09AA389A33FC06BA17CA120
:101E40008DA19EA120E03FEF4FE757E40E941903C8
:101E500018164CF56FA178A589A59AA520E030E069
:101E600040E251E40E941F02DC01CB01BC01CD0124
:101E70000E944900DC01CB019AA389A30FC080E92D
:101E800091E098A38F8F8F8D98A10197F1F798A378
:101E90008F8F89A19AA101979AA389A389A19AA159
:101EA000009769F714C06BA17CA18DA19EA10E942F
:101EB0004900DC01CB019AA389A389A19AA19E8F35
:101EC0008D8F8D8D9E8D0197F1F79E8F8D8FABE35A
:101ED000B0E0EBE3F0E08081282F2F70FE01ED5998
:101EE000FF4F8081882F90E082959295907F982770
:101EF000807F9827822B8C9380E090E0A0E8BFE35E
:101F0000898F9A8FAB8FBC8F698D7A8D8B8D9C8DCD
:101F100020E030E04AE755E40E941F02DC01CB01DB
:101F20008D8B9E8BAF8BB88F6D897E898F89988DB5
:101F300020E030E040E85FE30E94790388232CF43E
:101F400081E090E09C8B8B8B3FC06D897E898F896F
:101F5000988D20E03FEF4FE757E40E9419031816D1
:101F60004CF5698D7A8D8B8D9C8D20E030E040E2C0
:101F700051E40E941F02DC01CB01BC01CD010E9493
:101F80004900DC01CB019C8B8B8B0FC080E991E079
:101F90009A8B898B89899A890197F1F79A8B898B1A
:101FA0008B899C8901979C8B8B8B8B899C89009753
:101FB00069F714C06D897E898F89988D0E944900C8
:101FC000DC01CB019C8B8B8B8B899C89988B8F87B9
:101FD0008F8598890197F1F7988B8F87ABE3B0E0F5
:101FE000EBE3F0E08081877F8C9380E090E0A0E8D5
:101FF000BFE38B879C87AD87BE876B857C858D858E
:102000009E8520E030E04AE755E40E941F02DC0193
:10201000CB018F839887A987BA876F817885898557
:102020009A8520E030E040E85FE30E94790388234E
:102030002CF481E090E09E838D833FC06F81788592
:1020400089859A8520E03FEF4FE757E40E94190306
:1020500018164CF56B857C858D859E8520E030E0DB
:1020600040E251E40E941F02DC01CB01BC01CD0122
:102070000E944900DC01CB019E838D830FC080E963
:1020800091E09C838B838B819C810197F1F79C83EA
:102090008B838D819E8101979E838D838D819E810F
:1020A000009769F714C06F81788589859A850E94A9
:1020B0004900DC01CB019E838D838D819E819A83B3
:1020C000898389819A810197F1F79A838983CD5910
:1020D000DF4F0FB6F894DEBF0FBECDBFCF91DF91BB
:1020E0001F910F910895DF93CF9300D0CDB7DEB746
:1020F0009A8389830AC0E981FA8180810E94560C03
:1021000089819A8101969A838983E981FA81808104
:10211000882389F70F900F90CF91DF910895DF9377
:10212000CF9300D000D00F92CDB7DEB78A836B83F8
:102130008A81282F30E03D832C838C819D818130E2
:102140009105C1F02C813D81223031052CF48C8128
:102150009D81009761F019C02C813D8122303105AD
:1021600069F08C819D818330910561F00EC08B8177
:1021700089830BC08B81805C898307C08B81805FE2
:10218000898303C08B81805B8983898180680E94F9
:1021900039080F900F900F900F900F90CF91DF9113
:1021A0000895DF93CF9300D000D0CDB7DEB78983F9
:1021B0006A835C834B8389816A810E948F108B8143
:1021C0009C810E9473100F900F900F900F90CF91F1
:1021D000DF910895DF93CF93CDB7DEB763970FB646
:1021E000F894DEBF0FBECDBF688B798B8A8B9B8B3B
:1021F000CE0104960B969B838A83198288899989DC
:10220000AA89BB89BB238CF481E089838889998959
:10221000AA89BB89B095A095909581959F4FAF4FA6
:10222000BF4F888B998BAA8BBB8BEA81FB81108275
:102230008A819B8101979B838A8388899989AA894E
:10224000BB892AE030E040E050E0BC01CD010E94B3
:102250008C22DC01CB01805DEA81FB81808388894F
:102260009989AA89BB892AE030E040E050E0BC01AE
:10227000CD010E948C22DA01C901888B998BAA8B2F
:10228000BB8B88899989AA89BB890097A105B1056B
:1022900079F68981882349F08A819B8101979B8304
:1022A0008A83EA81FB818DE280838A819B810E94FF
:1022B000731063960FB6F894DEBF0FBECDBFCF91FB
:1022C000DF910895DF93CF93CDB7DEB781E00E9411
:1022D0003908CF91DF9108951F920F920FB60F9298
:1022E00011242F933F934F935F936F937F938F931B
:1022F0009F93AF93BF93EF93FF93DF93CF93CDB7AC
:10230000DEB78091710090917200009729F0E09102
:102310007100F09172000995CF91DF91FF91EF91DB
:10232000BF91AF919F918F917F916F915F914F91ED
:102330003F912F910F900FBE0F901F901895DF9334
:10234000CF9300D0CDB7DEB79A838983E981FA8134
:102350008081882391F481E060EB40E00E94C51603
:1023600081E060E44FEF0E94C516ADE2B0E0EDE21F
:10237000F0E080818F7E8C9316C0E981FA818081A4
:10238000813089F481E060EB4FEF0E94C51681E057
:1023900060E440E00E94C516ADE2B0E0EDE2F0E09E
:1023A000808180618C93ADE2B0E0EDE2F0E080816D
:1023B000982F9F77E981FA818181892B8C93ADE2F7
:1023C000B0E0EDE2F0E0808180648C93ADE2B0E0BB
:1023D000EDE2F0E08081982F9C7FE981FA81828193
:1023E0008370892B8C93AEE2B0E0EEE2F0E0808166
:1023F000982F9E7FE981FA81828186958695892B27
:102400008C930F900F90CF91DF910895DF93CF932E
:1024100000D0CDB7DEB79A83898389819A81909362
:102420007200809371000F900F90CF91DF9108950B
:10243000DF93CF930F92CDB7DEB78983EFE2F0E061
:1024400089818083EDE2F0E0808188232CF0EEE248
:10245000F0E080818823DCF70F90CF91DF91089521
:10246000DF93CF93CDB7DEB7EDE2F0E08081882334
:102470002CF0EEE2F0E080818823DCF7EFE2F0E080
:102480008081CF91DF9108951F920F920FB60F9226
:1024900011242F933F934F935F936F937F938F9369
:1024A0009F93AF93BF93EF93FF93DF93CF93CDB7FA
:1024B000DEB7E4E5F0E08081882F90E080749070D2
:1024C000009731F00E94F81280E00E94CA1215C0F5
:1024D000E4E5F0E08081882F90E0807490700097B0
:1024E00061F483E790E00E94DE1280E40E94CA1249
:1024F0000E94EF1281E080937400CF91DF91FF91F1
:10250000EF91BF91AF919F918F917F916F915F916B
:102510004F913F912F910F900FBE0F901F901895E4
:10252000EF920F93DF93CF930F92CDB7DEB78983EE
:1025300080E060E044E020E000E0EE240E94C41C63
:1025400081E064E040E00E94C51683E061E04FEF67
:102550000E94C516ABE5B0E0EBE5F0E0808180625B
:102560008C93A4E5B0E0E4E5F0E08081982F9F7BB8
:102570008981892B8C9378940F90CF91DF910F9163
:10258000EF900895DF93CF93CDB7DEB780E0CF9182
:10259000DF910895DF93CF930F92CDB7DEB7898394
:1025A000A4E5B0E0E4E5F0E08081982F9F7B89818D
:1025B000892B8C930F90CF91DF910895DF93CF9368
:1025C00000D0CDB7DEB79A8389830E941C1DE981B4
:1025D000FA8180830F900F90CF91DF910895DF9360
:1025E000CF93CDB7DEB70E943B1DCF91DF91089509
:1025F000DF93CF93CDB7DEB70E94261DCF91DF9139
:102600000895DF93CF93CDB7DEB7CF91DF910895D3
:10261000DF93CF93CDB7DEB7CF91DF9108951F92AF
:102620000F920FB60F9211242F933F934F935F9306
:102630006F937F938F939F93AF93BF93EF93FF938A
:10264000DF93CF93CDB7DEB780917700909178007C
:10265000009729F0E0917700F09178000995CF91EB
:10266000DF91FF91EF91BF91AF919F918F917F91FA
:102670006F915F914F913F912F910F900FBE0F90EF
:102680001F9018951F920F920FB60F9211242F933F
:102690003F934F935F936F937F938F939F93AF93EA
:1026A000BF93EF93FF93DF93CF93CDB7DEB78091C6
:1026B000790090917A00009729F0E0917900F091EB
:1026C0007A000995CF91DF91FF91EF91BF91AF9182
:1026D0009F918F917F916F915F914F913F912F913A
:1026E0000F900FBE0F901F9018951F920F920FB66C
:1026F0000F9211242F933F934F935F936F937F9388
:102700008F939F93AF93BF93EF93FF93DF93CF93F9
:10271000CDB7DEB78091750090917600009729F0D3
:10272000E0917500F09176000995CF91DF91FF91CE
:10273000EF91BF91AF919F918F917F916F915F9139
:102740004F913F912F910F900FBE0F901F901895B2
:10275000DF93CF9300D0CDB7DEB79A838983898189
:102760009A8190937600809375000F900F90CF918F
:10277000DF910895DF93CF9300D0CDB7DEB79A8372
:10278000898389819A8190937800809377000F9054
:102790000F90CF91DF910895DF93CF9300D0CDB705
:1027A000DEB79A83898389819A8190937A00809396
:1027B00079000F900F90CF91DF910895DF93CF9321
:1027C00000D000D0CDB7DEB79A838983ABE2B0E00A
:1027D000EBE2F0E0808182608C93E981FA81818173
:1027E000282F30E03C832B838B819C8181309105A5
:1027F000F1F02B813C812230310569F18B819C8184
:10280000009709F049C0AAE2B0E0EAE2F0E0808176
:1028100088608C93E981FA8185818130E9F5AAE2AB
:10282000B0E0EAE2F0E0808180648C9335C0AAE2F7
:10283000B0E0EAE2F0E0808180618C93E981FA8186
:102840008581813049F5AAE2B0E0EAE2F0E08081DA
:1028500080688C9321C0AAE2B0E0EAE2F0E08081D7
:1028600088608C93AAE2B0E0EAE2F0E080818061C7
:102870008C93E981FA818581813071F4AAE2B0E01C
:10288000EAE2F0E0808180648C93AAE2B0E0EAE2C0
:10289000F0E0808180688C93AAE2B0E0EAE2F0E0A8
:1028A0008081982F9B7FE981FA8182818470892BB6
:1028B0008C93A0E4B0E0E0E4F0E0808180688C9349
:1028C000A0E4B0E0E0E4F0E09081E981FA81808169
:1028D000892B8C93A0E4B0E0E0E4F0E08081282F25
:1028E000297FE981FA818281882F90E0837090703E
:1028F000880F991F822B8C93A0E4B0E0E0E4F0E015
:102900008081982F9F7CE981FA818381892B8C9328
:10291000A0E4B0E0E0E4F0E08081982F977FE981C7
:10292000FA818481892B8C93E0E4F0E01082E9E263
:10293000F0E08FEC80830F900F900F900F90CF916D
:10294000DF910895DF93CF930F92CDB7DEB78983E0
:10295000EAE2F0E08081882F90E080749070009728
:1029600049F4EBE2F0E08081882F90E08072907073
:102970000097B9F3ECE2F0E0898180830F90CF916A
:10298000DF910895DF93CF93CDB7DEB7EAE2F0E0B1
:10299000808188232CF0EBE2F0E080818823DCF753
:1029A000ECE2F0E08081CF91DF910895DF93CF9347
:1029B00000D00F92CDB7DEB789838981282F30E010
:1029C0003B832A838A819B81009731F02A813B8156
:1029D00021303105B1F029C083E060E14FEF0E9462
:1029E000C51683E064E04FEF0E94C51683E068E0FF
:1029F0004FEF0E94C51683E060E14FEF0E94311750
:102A000014C083E060E24FEF0E94C51683E060E4EB
:102A10004FEF0E94C51683E060E84FEF0E94C51695
:102A200083E060E24FEF0E9431170F900F900F90FC
:102A3000CF91DF910895DF93CF93CDB7DEB72B977A
:102A40000FB6F894DEBF0FBECDBF8C836D831B82A3
:102A50001A8219828C81282F30E03B872A878A8549
:102A60009B85009731F02A853B852130310541F067
:102A70000DC083E08B8384E08A8388E0898306C06D
:102A800083E08B8380E48A8380E889838D81282F8B
:102A900030E039872887888599858130910571F1E3
:102AA0002885398522303105A1F1888599850097DF
:102AB000D1F58B816A8140E00E9431178B81698159
:102AC00040E00E9431178C81282F30E03F832E8315
:102AD0008E819F81009731F02E813F812130310519
:102AE00039F021C08B8160E140E00E9431171BC0AA
:102AF0008B8160E240E00E94311715C08B816A81B2
:102B000040E00E9431178B8169814FEF0E9431179D
:102B10000AC08B816A814FEF0E9431178B816981D6
:102B200040E00E9431172B960FB6F894DEBF0FBE1F
:102B3000CDBFCF91DF910895DF93CF930F92CDB7A3
:102B4000DEB78983898168EC0E94DF1D0F90CF91E9
:102B5000DF910895DF93CF930F92CDB7DEB78983CE
:102B60000F90CF91DF910895DF93CF9300D000D0E5
:102B7000CDB7DEB789836A838981282F30E03C8313
:102B80002B838B819C8181309105D1F02B813C81FD
:102B9000223031052CF48B819C81009761F01EC09E
:102BA0002B813C812230310581F08B819C818330E7
:102BB000910581F013C0EAE3F0E08A8180830EC0C2
:102BC000E7E3F0E08A81808309C0E4E3F0E08A81F2
:102BD000808304C0E1E3F0E08A8180830F900F904E
:102BE0000F900F90CF91DF910895DF93CF9300D096
:102BF00000D0CDB7DEB789836A838981282F30E082
:102C00003C832B838B819C8181309105D1F02B817A
:102C10003C81223031052CF48B819C81009761F03E
:102C20001EC02B813C812230310581F08B819C813B
:102C30008330910581F013C0EBE3F0E08A8180835B
:102C40000EC0E8E3F0E08A81808309C0E5E3F0E0AC
:102C50008A81808304C0E2E3F0E08A8180830F9060
:102C60000F900F900F90CF91DF910895DF93CF9346
:102C700000D00F92CDB7DEB789838981282F30E04D
:102C80003B832A838A819B8181309105E9F02A81E7
:102C90003B81223031052CF48A819B81009761F0C1
:102CA0002AC02A813B8122303105B1F08A819B8183
:102CB00083309105C9F01FC0ABE3B0E0EBE3F0E077
:102CC000808180958C9317C0A8E3B0E0E8E3F0E042
:102CD000808180958C930FC0A5E3B0E0E5E3F0E040
:102CE000808180958C9307C0A2E3B0E0E2E3F0E03E
:102CF000808180958C930F900F900F90CF91DF91F2
:102D00000895DF93CF9300D000D0CDB7DEB789838D
:102D10008981282F30E03C832B838B819C818130FB
:102D20009105D1F02B813C81223031052CF48B812F
:102D30009C81009761F01FC02B813C8122303105BE
:102D400081F08B819C818330910581F014C0E9E38F
:102D5000F0E090819A8311C0E6E3F0E020812A83BD
:102D60000CC0E3E3F0E030813A8307C0E0E3F0E039
:102D700080818A8302C09FEF9A838A810F900F908F
:102D80000F900F90CF91DF910895DF93CF93CDB740
:102D9000DEB729970FB6F894DEBF0FBECDBF8B8389
:102DA0006C834D831A8219828B81282F30E03987FA
:102DB00028878885998581309105D1F028853985C6
:102DC000223031052CF488859985009761F01EC06A
:102DD000288539852230310581F0888599858330B1
:102DE000910581F013C08AE390E09A8389830EC035
:102DF00087E390E09A83898309C084E390E09A8313
:102E0000898304C081E390E09A8389838D81282F90
:102E100030E03F832E838E819F81009731F02E8199
:102E20003F812F3F310561F013C0E981FA81808134
:102E3000982F8C8180958923E981FA81808308C04D
:102E4000E981FA8190818C81892BE981FA818083E3
:102E500029960FB6F894DEBF0FBECDBFCF91DF919C
:102E60000895DF93CF93CDB7DEB729970FB6F894C7
:102E7000DEBF0FBECDBF8B836C834D831A82198258
:102E80008B81282F30E03987288788859985813084
:102E90009105D1F028853985223031052CF48885BB
:102EA0009985009761F01EC028853985223031054B
:102EB00081F0888599858330910581F013C08BE37B
:102EC00090E09A8389830EC088E390E09A83898397
:102ED00009C085E390E09A83898304C082E390E08F
:102EE0009A8389838D81282F30E03F832E838E81C2
:102EF0009F81009731F02E813F812F3F310561F096
:102F000013C0E981FA818081982F8C818095892373
:102F1000E981FA81808308C0E981FA8190818C81FE
:102F2000892BE981FA81808329960FB6F894DEBF58
:102F30000FBECDBFCF91DF910895DF93CF9300D027
:102F400000D0CDB7DEB789836A838981282F30E02E
:102F50003C832B838B819C8181309105F1F02B8107
:102F60003C81223031052CF48B819C81009761F0EB
:102F70002EC02B813C8122303105C1F08B819C8198
:102F800083309105E1F023C0ABE3B0E0EBE3F0E088
:102F900090818A8189278C931AC0A8E3B0E0E8E386
:102FA000F0E090818A8189278C9311C0A5E3B0E07D
:102FB000E5E3F0E090818A8189278C9308C0A2E341
:102FC000B0E0E2E3F0E090818A8189278C930F9052
:102FD0000F900F900F90CF91DF910895DF93CF93D3
:102FE000CDB7DEB729970FB6F894DEBF0FBECDBFC1
:102FF00089836A838981282F30E03D832C838C81EB
:103000009D818130910519F12C813D81223031055E
:103010002CF48C819D81009761F043C02C813D810F
:103020002230310511F18C819D818330910559F158
:1030300038C0E9E3F0E090818A8189238E839E8104
:10304000992311F021E02E833E813B832CC0E6E3DF
:10305000F0E090818A8189238F838F81882311F00A
:1030600091E09F832F812B831EC0E3E3F0E09081EA
:103070008A81892388873885332311F081E0888706
:1030800098859B8310C0E0E3F0E090818A818923DA
:1030900089872985222311F031E0398789858B833F
:1030A00002C09FEF9B838B8129960FB6F894DEBFF9
:1030B0000FBECDBFCF91DF910895DF93CF9300D0A6
:1030C0000F92CDB7DEB789838981282F30E03B830B
:1030D0002A838A819B8181309105D9F02A813B81A5
:1030E000223031052CF48A819B81009761F022C047
:1030F0002A813B812230310591F08A819B81833086
:10310000910599F017C081E060E14FEF0E94C5166C
:1031100011C081E060E24FEF0E94C5160BC081E054
:1031200060E44FEF0E94C51605C081E060E84FEFF4
:103130000E94C5160F900F900F90CF91DF910895C8
:10314000DF93CF9300D00F92CDB7DEB7898389810B
:10315000282F30E03B832A838A819B81813091052F
:10316000D9F02A813B81223031052CF48A819B8160
:10317000009761F022C02A813B812230310591F015
:103180008A819B818330910599F017C081E060E1CD
:103190004FEF0E94311711C081E060E24FEF0E94B3
:1031A00031170BC081E060E44FEF0E94311705C07A
:1031B00081E060E84FEF0E9431170F900F900F9061
:1031C000CF91DF910895DF93CF9300D00F92CDB7C9
:1031D000DEB789838981282F30E03B832A838A8167
:1031E0009B8181309105D9F02A813B8122303105C4
:1031F0002CF48A819B81009761F022C02A813B8157
:103200002230310591F08A819B818330910599F0BC
:1032100017C081E060E140E00E94311711C081E0F9
:1032200060E240E00E9431170BC081E060E440E0C2
:103230000E94311705C081E060E840E00E9431172C
:103240000F900F900F90CF91DF910895DF93CF9360
:1032500000D00F92CDB7DEB789838981282F30E067
:103260003B832A838A819B8181309105D1F02A8119
:103270003B81223031052CF48A819B81009761F0DB
:103280001EC02A813B812230310581F08A819B81D9
:103290008330910581F013C081E060E10E949D17A9
:1032A0000EC081E060E20E949D1709C081E060E4E9
:1032B0000E949D1704C081E060E80E949D170F9056
:1032C0000F900F90CF91DF910895DF93CF9300D0AF
:1032D0000F92CDB7DEB789838981282F30E03B83F9
:1032E0002A838A819B81009731F02A813B8121309A
:1032F000310539F00BC082E060E140E00E94C51664
:1033000005C081E064E040E00E94C5160F900F9078
:103310000F90CF91DF910895DF93CF93CDB7DEB7B4
:10332000CF91DF910895DF93CF9300D000D0CDB738
:10333000DEB789838981282F30E03C832B838B8102
:103340009C818130910571F12B813C8122303105C6
:103350002CF48B819C81009761F043C02B813C81D0
:1033600022303105C1F18B819C8183309105B1F10F
:1033700038C082E060E10E94EE17882389F064E1A2
:1033800070E080E090E00E94D31A82E060E10E9449
:10339000EE17882319F092E09A8325C01A8223C081
:1033A0001A8221C081E064E00E94EE17882389F030
:1033B00064E170E080E090E00E94D31A81E064E074
:1033C0000E94EE17882319F022E02A830CC01A828B
:1033D0000AC01A8208C03FEF3A8305C08FEF8A8384
:1033E00002C09FEF9A838A810F900F900F900F90E9
:1033F000CF91DF910895DF93CF9300D00F92CDB797
:10340000DEB789838981282F30E03B832A838A8134
:103410009B81009731F02A813B8121303105C9F031
:103420002FC081E06FE04FEF0E94C51683E064E19A
:103430004FEF0E94C51681E06FE040E00E94311717
:1034400083E060E140E00E94311780E00E94731A3F
:1034500017C081E06FE04FEF0E94C51683E068E17E
:103460004FEF0E94C51681E06FE040E00E943117E7
:1034700083E060E140E00E94311781E00E94731A0E
:103480000F900F900F90CF91DF910895DF93CF931E
:1034900000D00F92CDB7DEB789838981282F30E025
:1034A0003B832A838A819B81009731F02A813B816B
:1034B0002130310551F011C083E064E040E00E940A
:1034C00031178FEF80937B0008C083E068E040E015
:1034D0000E9431178FEF809368000F900F900F902C
:1034E000CF91DF910895DF93CF9300D00F92CDB7A6
:1034F000DEB789838981282F30E03B832A838A8144
:103500009B81009731F02A813B812130310549F0C0
:103510000FC083E064E04FEF0E94311710927B00F0
:1035200007C083E068E04FEF0E94311710926800F7
:103530000F900F900F90CF91DF910895DF93CF936D
:1035400000D000D0CDB7DEB789836A838981282F68
:1035500030E03C832B838B819C81009731F02B8161
:103560003C812130310569F017C080917B008F3F8D
:1035700099F48A81982F9F7081E0692F0E94F51538
:103580000BC0809168008F3F39F48A81982F9F701B
:1035900081E0692F0E94F5150F900F900F900F900A
:1035A000CF91DF910895DF93CF93CDB7DEB76097CA
:1035B0000FB6F894DEBF0FBECDBF6D877E878F87B5
:1035C000988B84E891E0A0E0B0E089879A87AB8788
:1035D000BC871D821E821F82188628C019821A820B
:1035E0001B821C820BC089819A81AB81BC810196B0
:1035F000A11DB11D89839A83AB83BC8329813A8144
:103600004B815C8189859A85AB85BC8528173907F4
:103610004A075B0740F38D819E81AF81B885019693
:10362000A11DB11D8D839E83AF83B8872D813E81FF
:103630004F8158858D859E85AF85B88928173907B4
:103640004A075B0758F260960FB6F894DEBF0FBECC
:10365000CDBFCF91DF9108951F920F920FB60F92B9
:1036600011242F933F934F935F936F937F938F9387
:103670009F93AF93BF93EF93FF93DF93CF93CDB718
:10368000DEB780917E0090917F00009729F0E09155
:103690007E00F0917F000995CF91DF91FF91EF912E
:1036A000BF91AF919F918F917F916F915F914F915A
:1036B0003F912F910F900FBE0F901F9018951F9262
:1036C0000F920FB60F9211242F933F934F935F9356
:1036D0006F937F938F939F93AF93BF93EF93FF93DA
:1036E000DF93CF93CDB7DEB78091800090918100BA
:1036F000009729F0E0918000F09181000995CF9129
:10370000DF91FF91EF91BF91AF919F918F917F9149
:103710006F915F914F913F912F910F900FBE0F903E
:103720001F9018951F920F920FB60F9211242F938E
:103730003F934F935F936F937F938F939F93AF9339
:10374000BF93EF93FF93DF93CF93CDB7DEB7809115
:10375000820090918300009729F0E0918200F0911F
:1037600083000995CF91DF91FF91EF91BF91AF91C8
:103770009F918F917F916F915F914F913F912F9189
:103780000F900FBE0F901F9018951F920F920FB6BB
:103790000F9211242F933F934F935F936F937F93D7
:1037A0008F939F93AF93BF93EF93FF93DF93CF9349
:1037B000CDB7DEB78091840090918500009729F005
:1037C000E0918400F09185000995CF91DF91FF9100
:1037D000EF91BF91AF919F918F917F916F915F9189
:1037E0004F913F912F910F900FBE0F901F90189502
:1037F0001F920F920FB60F9211242F933F934F9366
:103800005F936F937F938F939F93AF93BF93EF9348
:10381000FF93DF93CF93CDB7DEB780918600909171
:103820008700009729F0E0918600F09187000995C4
:10383000CF91DF91FF91EF91BF91AF919F918F91C8
:103840007F916F915F914F913F912F910F900FBE9C
:103850000F901F9018951F920F920FB60F92112480
:103860002F933F934F935F936F937F938F939F9388
:10387000AF93BF93EF93FF93DF93CF93CDB7DEB7B3
:103880008091880090918900009729F0E09188004C
:10389000F09189000995CF91DF91FF91EF91BF9150
:1038A000AF919F918F917F916F915F914F913F91D8
:1038B0002F910F900FBE0F901F9018951F920F928F
:1038C0000FB60F9211242F933F934F935F936F93F3
:1038D0007F938F939F93AF93BF93EF93FF93DF9368
:1038E000CF93CDB7DEB780918A0090918B0000977F
:1038F00029F0E0918A00F0918B000995CF91DF913A
:10390000FF91EF91BF91AF919F918F917F916F91B7
:103910005F914F913F912F910F900FBE0F901F908D
:1039200018951F920F920FB60F9211242F933F9369
:103930004F935F936F937F938F939F93AF93BF93B7
:10394000EF93FF93DF93CF93CDB7DEB780918C00D9
:1039500090918D00009729F0E0918C00F0918D00FE
:103960000995CF91DF91FF91EF91BF91AF919F9119
:103970008F917F916F915F914F913F912F910F9018
:103980000FBE0F901F901895EF920F93DF93CF9378
:1039900000D000D000D0CDB7DEB789836A834B83D7
:1039A0002C830D83EE82A3E5B0E0E3E5F0E08081B7
:1039B00080688C93A3E5B0E0E3E5F0E08081982F88
:1039C000977B8981892B8C93A3E5B0E0E3E5F0E058
:1039D0008081982F9F7C8A81892B8C938B81809307
:1039E0007C00E2E5F0E08C818083ECE5F0E08D8105
:1039F0008083A9E5B0E0E9E5F0E08081982F9C7F25
:103A00008E81892B8C9326960FB6F894DEBF0FBE5D
:103A1000CDBFCF91DF910F91EF900895DF93CF93BA
:103A20000F92CDB7DEB78983E2E5F0E0898180832C
:103A30000F90CF91DF910895DF93CF93CDB7DEB78D
:103A4000E2E5F0E08081CF91DF910895DF93CF939D
:103A5000CDB7DEB7A3E5B0E0E3E5F0E08081982FD5
:103A6000987F80917C00892B8C93E2E5F0E01082B6
:103A7000CF91DF910895DF93CF93CDB7DEB7A3E564
:103A8000B0E0E3E5F0E08081887F8C93CF91DF9117
:103A90000895EF920F93DF93CF9300D000D00F9251
:103AA000CDB7DEB79D838C831B821A828AEF898310
:103AB00080E060E043E020E000E0EE240E94C41CCF
:103AC0000E94261D1B821A820EC0E2E5F0E0908162
:103AD00089819817D0F3E2E5F0E010828A819B811A
:103AE00001969B838A832A813B818C819D81281743
:103AF000390758F30F900F900F900F900F90CF91C0
:103B0000DF910F91EF900895EF920F93DF93CF9392
:103B1000CDB7DEB729970FB6F894DEBF0FBECDBF85
:103B20006E837F83888799871A821B821C821D82FD
:103B300080E1898388E060E041E020E00981EE24B3
:103B40000E94C41C0E94261D1A821B821C821D8298
:103B50001EC0E8E5F0E08081882F90E082709070D0
:103B60000097B9F3A8E5B0E0E8E5F0E08081826075
:103B70008C93E2E5F0E010828A819B81AC81BD816B
:103B80000196A11DB11D8A839B83AC83BD832A81CD
:103B90003B814C815D818E819F81A885B9852817E5
:103BA00039074A075B07A8F229960FB6F894DEBFDB
:103BB0000FBECDBFCF91DF910F91EF900895EF929F
:103BC0000F93DF93CF9300D000D0CDB7DEB78B83B8
:103BD0006C8378948C818135E8F483E089838C81CF
:103BE000882F90E0A0E0B0E020E039E140E050E034
:103BF000BC01CD010E942B229B01AC0180E094E22C
:103C0000A4EFB0E0BC01CD010E946A22DA01C90133
:103C10008A831CC082E089838C81882F90E0A0E099
:103C2000B0E020E233E040E050E0BC01CD010E9472
:103C30002B229B01AC0180E094E2A4EFB0E0BC0138
:103C4000CD010E946A22DA01C9018A8388E060E01E
:103C5000498120E00A81EE246894E1F80E94C41CA6
:103C60000E94261D0F900F900F900F90CF91DF9123
:103C70000F91EF900895DF93CF9300D0CDB7DEB7CB
:103C80009A83898389819A819093810080938000AF
:103C90000F900F90CF91DF910895DF93CF9300D0D5
:103CA000CDB7DEB79A83898389819A8190937F000B
:103CB00080937E000F900F90CF91DF910895AF9287
:103CC000CF92DF92EF92FF920F931F93DF93CF93E8
:103CD000CDB7DEB72D970FB6F894DEBF0FBECDBFC0
:103CE00089837B836A834C833E832D8318870F836C
:103CF000FA86E986DC86CB86AD86AFE4B0E0EFE4F9
:103D0000F0E0808188608C93AFE4B0E0EFE4F0E015
:103D1000808184608C93EEE4F0E011821082EEE406
:103D2000F0E08981282F30E08A819B81822B932BC0
:103D3000918380838C8180937C00ECE4F0E08D8122
:103D40009E8191838083EAE4F0E08F81988591835E
:103D50008083E8E4F0E089859A8591838083A9E5F2
:103D6000B0E0E9E5F0E08081982F937C8D85892B88
:103D70008C932D960FB6F894DEBF0FBECDBFCF91BA
:103D8000DF911F910F91FF90EF90DF90CF90AF9058
:103D90000895DF93CF9300D0CDB7DEB79A838983A0
:103DA000ECE4F0E089819A81918380830F900F90F9
:103DB000CF91DF910895DF93CF93CDB7DEB7ECE4D9
:103DC000F0E080819181CF91DF910895DF93CF93CF
:103DD000CDB7DEB7AEE4B0E0EEE4F0E08081982F3E
:103DE000987F80917C00892B8C93ECE4F0E0118229
:103DF0001082CF91DF910895DF93CF93CDB7DEB7D7
:103E0000AEE4B0E0EEE4F0E08081887F8C93CF9167
:103E1000DF910895AF92CF92DF92EF92FF920F93CE
:103E20001F93DF93CF9300D000D000D0CDB7DEB783
:103E30009E838D831C821B828AEF90E09A83898304
:103E400080E060E070E043E020E030E000E010E07F
:103E5000EE24FF24CC24DD24AA240E945F1E0E94AD
:103E6000E61E1C821B8212C0ECE4F0E0208131814E
:103E700089819A8128173907B8F3ECE4F0E01182C0
:103E800010828B819C8101969C838B832B813C814A
:103E90008D819E812817390738F326960FB6F8943E
:103EA000DEBF0FBECDBFCF91DF911F910F91FF906D
:103EB000EF90DF90CF90AF900895AF92CF92DF92C6
:103EC000EF92FF920F931F93DF93CF93CDB7DEB79F
:103ED0002A970FB6F894DEBF0FBECDBF6F837887E9
:103EE00089879A871B821C821D821E8280E190E056
:103EF0009A838983E981FA8188E060E070E041E09B
:103F000020E030E08F01EE24FF24CC24DD24AA241D
:103F10000E945F1E0E94E61E1B821C821D821E8262
:103F20001FC0E8E5F0E08081882F90E080719070FC
:103F30000097B9F3A8E5B0E0E8E5F0E080818061A2
:103F40008C93ECE4F0E0118210828B819C81AD8136
:103F5000BE810196A11DB11D8B839C83AD83BE8361
:103F60002B813C814D815E818F819885A985BA85A1
:103F7000281739074A075B07A0F22A960FB6F8946C
:103F8000DEBF0FBECDBFCF91DF911F910F91FF908C
:103F9000EF90DF90CF90AF900895AF92CF92DF92E5
:103FA000EF92FF920F931F93DF93CF9300D000D037
:103FB000CDB7DEB78B836C8378948C818135E8F440
:103FC00083E089838C81882F90E0A0E0B0E020E03E
:103FD00039E140E050E0BC01CD010E942B229B0161
:103FE000AC0180E094E2A4EFB0E0BC01CD010E94FE
:103FF0006A22DA01C9018A831CC082E089838C812C
:10400000882F90E0A0E0B0E020E233E040E050E014
:10401000BC01CD010E942B229B01AC0180E094E207
:10402000A4EFB0E0BC01CD010E946A22DA01C9010F
:104030008A838A81E82FF0E088E060E070E04981BF
:1040400020E030E08F01EE24FF24CC24DD24AA24DC
:104050006894A4F80E945F1E0E94E61E0F900F90C5
:104060000F900F90CF91DF911F910F91FF90EF90E4
:10407000DF90CF90AF900895DF93CF9300D0CDB76E
:10408000DEB79A83898389819A819093890080938E
:1040900088000F900F90CF91DF910895DF93CF9319
:1040A00000D0CDB7DEB79A83898389819A819093B6
:1040B0008500809384000F900F90CF91DF91089539
:1040C000DF93CF9300D0CDB7DEB79A838983898100
:1040D0009A8190938700809386000F900F90CF91E4
:1040E000DF910895DF93CF9300D0CDB7DEB79A83E9
:1040F000898389819A8190938300809382000F90B5
:104100000F90CF91DF910895CF92EF920F93DF93AD
:10411000CF93CDB7DEB727970FB6F894DEBF0FBEAB
:10412000CDBF89836A834B832C830D83EE82CF823C
:10413000A5E4B0E0E5E4F0E0808180688C93A5E43C
:10414000B0E0E5E4F0E08081982F977B8981892BAE
:104150008C93A5E4B0E0E5E4F0E08081982F9F7CAB
:104160008A81892B8C938B8180937D00E4E4F0E03D
:104170008C818083E3E4F0E08D818083A9E5B0E069
:10418000E9E5F0E08081982F9F738F81892B8C93D4
:1041900027960FB6F894DEBF0FBECDBFCF91DF914B
:1041A0000F91EF90CF900895DF93CF930F92CDB7FB
:1041B000DEB78983E4E4F0E0898180830F90CF91BA
:1041C000DF910895DF93CF93CDB7DEB7E4E4F0E05D
:1041D0008081CF91DF910895DF93CF93CDB7DEB784
:1041E000A5E4B0E0E5E4F0E08081982F987F80912D
:1041F0007D00892B8C93E4E4F0E01082CF91DF9175
:104200000895DF93CF93CDB7DEB7A5E4B0E0E5E442
:10421000F0E08081887F8C93CF91DF910895CF92D9
:10422000EF920F93DF93CF9300D000D00F92CDB7D2
:10423000DEB79D838C831B821A828AEF898380E09C
:1042400060E044E020E000E0EE24CC240E948420E2
:104250000E94EC201B821A820EC0E4E4F0E0908100
:1042600089819817D0F3E4E4F0E010828A819B8181
:1042700001969B838A832A813B818C819D812817AB
:10428000390758F30F900F900F900F900F90CF9128
:10429000DF910F91EF90CF900895CF92EF920F930F
:1042A000DF93CF93CDB7DEB729970FB6F894DEBF73
:1042B0000FBECDBF6E837F83888799871A821B824A
:1042C0001C821D8280E1898388E060E041E020E07B
:1042D0000981EE24CC240E9484200E94EC201A82C2
:1042E0001B821C821D821AC0E8E5F0E080818823D1
:1042F000DCF7A8E5B0E0E8E5F0E0808180688C9329
:10430000E4E4F0E010828A819B81AC81BD8101965A
:10431000A11DB11D8A839B83AC83BD832A813B8110
:104320004C815D818E819F81A885B98528173907C9
:104330004A075B07C8F229960FB6F894DEBF0FBE96
:10434000CDBFCF91DF910F91EF90CF900895CF9295
:10435000EF920F93DF93CF9300D000D0CDB7DEB7AD
:104360008B836C8378948C818135E8F483E0898336
:104370008C81882F90E0A0E0B0E020E039E140E0BF
:1043800050E0BC01CD010E942B229B01AC0180E0DA
:1043900094E2A4EFB0E0BC01CD010E946A22DA01F0
:1043A000C9018A831CC082E089838C81882F90E0B8
:1043B000A0E0B0E020E233E040E050E0BC01CD01FD
:1043C0000E942B229B01AC0180E094E2A4EFB0E0BC
:1043D000BC01CD010E946A22DA01C9018A8388E00A
:1043E00060E0498120E00A81EE240F2EF0E8CF2E14
:1043F000F02D0E9484200E94EC200F900F900F90CF
:104400000F90CF91DF910F91EF90CF900895DF93B0
:10441000CF9300D0CDB7DEB79A83898389819A8103
:1044200090938D0080938C000F900F90CF91DF912F
:104430000895DF93CF9300D0CDB7DEB79A838983F9
:1044400089819A8190938B0080938A000F900F90BE
:10445000CF91DF910895629FD001739FF001829FF9
:10446000E00DF11D649FE00DF11D929FF00D839F03
:10447000F00D749FF00D659FF00D9927729FB00DA0
:10448000E11DF91F639FB00DE11DF91FBD01CF01B3
:1044900011240895991B79E004C0991F961708F01C
:1044A000961B881F7A95C9F780950895AA1BBB1B98
:1044B00051E107C0AA1FBB1FA617B70710F0A61B24
:1044C000B70B881F991F5A95A9F780959095BC0145
:1044D000CD010895A1E21A2EAA1BBB1BFD010DC040
:1044E000AA1FBB1FEE1FFF1FA217B307E407F507A4
:1044F00020F0A21BB30BE40BF50B661F771F881F80
:10450000991F1A9469F760957095809590959B0115
:10451000AC01BD01CF01089597FB092E05260ED0F1
:1045200057FD04D0D7DF0AD0001C38F450954095D1
:10453000309521953F4F4F4F5F4F0895F6F7909577
:104540008095709561957F4F8F4F9F4F08952F9263
:104550003F924F925F926F927F928F929F92AF9213
:10456000BF92CF92DF92EF92FF920F931F93CF9360
:10457000DF93CDB7DEB7CA1BDB0B0FB6F894DEBFF7
:104580000FBECDBF09942A88398848885F846E841D
:104590007D848C849B84AA84B984C884DF80EE8067
:1045A000FD800C811B81AA81B981CE0FD11D0FB670
:1045B000F894DEBF0FBECDBFED010895F894FFCF94
:1045C0000000000000000000FF00000300000000E9
:00000001FF
